:020000040800F2
:10000000E03400200D02000809290008D727000865
:1000100005290008D9110008792A0008000000000D
:100020000000000000000000000000004729000858
:10003000F7120008000000004529000849290008BF
:1000400027020008270200082702000827020008EC
:1000500027020008270200082702000827020008DC
:1000600027020008270200082702000827020008CC
:1000700027020008270200082702000827020008BC
:1000800027020008270200082702000827020008AC
:10009000270200082702000827020008270200089C
:1000A000270200082702000827020008270200088C
:1000B000270200082702000827020008270200087C
:1000C000270200082702000827020008270200086C
:1000D000270200082702000827020008270200085C
:1000E000270200082702000827020008270200084C
:1000F000270200082702000827020008270200083C
:10010000270200082702000827020008270200082B
:10011000270200082702000827020008270200081B
:10012000DD11000827020008270200082702000846
:1001300027020008270200082702000827020008FB
:1001400027020008270200082702000827020008EB
:1001500027020008270200082702000827020008DB
:1001600027020008270200082702000827020008CB
:1001700027020008270200082702000800000000EC
:1001800027020008270200082702000827020008AB
:10019000270200082702000827020008270200089B
:1001A000270200082702000827020008270200088B
:1001B000270200082702000827020008270200087B
:1001C000270200082702000800000000270200089C
:1001D000270200082702000827020008270200085B
:1001E000270200082702000827020008270200084B
:1001F0002702000827020008DFF80CD000F068F89A
:1002000000480047E52A0008E034002006488047FF
:1002100006480047FEE7FEE7FEE7FEE7FEE7FEE7EB
:10022000FEE7FEE7FEE7FEE7152A0008F9010008F1
:100230002DE9F05F0546002092469B46884606461B
:10024000814640241BE0284641464746224600F0AE
:100250002FF853465A46C01A914110D311461846FA
:10026000224600F016F82D1A67EB01084F46224689
:100270000120002100F00DF817EB00094E41201E6F
:10028000A4F10104DFDC484631462A464346BDE876
:10029000F09F202A04DB203A00FA02F10020704788
:1002A0009140C2F1200320FA03F3194390407047B4
:1002B000202A04DB203A21FA02F00021704721FABB
:1002C00002F3D040C2F12002914008431946704722
:1002D000064C074D06E0E06840F0010394E8070093
:1002E00098471034AC42F6D3FFF78AFFB85900089C
:1002F000D8590008B0B5002921D0002302EB430CE7
:1003000032F813E0BCF802C002332EF0030E2CF0DA
:10031000030C50F80E4050F80C508B4240F80E5031
:1003200000EB0E0540F80C4000EB0C04D5F804C0BF
:10033000D4F804E0C5F804E0C4F804C0DED3B0BDCE
:100340002DE9F041048816460746012A98460D46D5
:100350000CD1E4B3281D214690ED000AB1EE400A0D
:10036000013980ED000A00F10800F5D1FF2C0CDD09
:10037000B4F5806F10DBB4F5805F22D0B4F5006F68
:1003800011D0B4F5806F17D021E03F2C10DC102C79
:1003900012D0202C07D01AE0B4F5807F03D0B4F53A
:1003A000007F0ED013E03846294600F0F7F80EE043
:1003B000402C06D0802C0AD13846294600F02EF871
:1003C00005E07A6801232846214600F071FBB8F168
:1003D000000F04D0B9892846BA68FFF78BFF012EB9
:1003E0001AD100EE104A002CB8EE400A14D0B7EE35
:1003F000001A81EE000A00BF95ED001A95ED012A62
:1004000020EE011A013C20EE422A85ED001A85ED0E
:10041000012A05F10805EFD1BDE8F0812DE9F0478B
:100420002DED068B038880460020D8F80420B0EB21
:10043000D30F084601EB830A4FEA530900F09E8070
:10044000D9080AEB890C00EB890E4C42002700BF4B
:10045000C3190AEB070593ED000A95ED004A30EE4B
:10046000048A0EEB07010CEB070630EE440A93ED0D
:10047000011A93ED022A93ED033A95ED015A95ED99
:10048000026A95ED037AD1ED000AD1ED011AD1EDA2
:10049000022AD1ED033AD6ED004AD6ED015AD6ED47
:1004A000026AD6ED037A31EE059A83ED008A32EEC8
:1004B00006AA013433EE078A83ED019A30EEA49A3E
:1004C00083ED02AA31EEA5AA83ED038A32EEA68A55
:1004D00033EEA74A81ED009A31EE451A81ED01AA6B
:1004E00081ED028A02EB070381ED034A34EEE05A04
:1004F000D3ED000A35EEE14A07F1100761EE201A4C
:10050000D3ED014A21EE241A40EE641A65EE245A16
:1005100064EE244A00EE201A44EE605A45EE204A6A
:1005200032EE460A85ED001A33EE471AC5ED011A80
:1005300036EEE22AC6ED005A37EEE33AC6ED014A3E
:1005400093ED034A93ED026A21EE045A21EE061A56
:1005500022EE047A63EE040A00EE065A00EE441A14
:1005600003EE467A42EE060A85ED025A85ED031A3D
:1005700086ED027AC6ED030A7FF46AAF022349468C
:1005800000F096FAD8F80420022350464946BDEC04
:10059000068BBDE8F04700F08BBA00002DE9F04F64
:1005A00081B02DED0C8B90B08446008891ED000A4F
:1005B000420801EB820404EB820591ED011A95EDEE
:1005C000002A95ED013A30EE024A0F4630EE420A1B
:1005D00005EB820631EE032A910031EE431A0F91AA
:1005E00094ED003A94ED015A30EE056A810871EEFF
:1005F000430A009174EE432A6FF0010172EE453A0E
:1006000001EB900A30EE450AD00034EE034A6FF059
:10061000070832EE052A0E9031EE031A02EB420172
:1006200096ED007AD6ED011A36EE616A08EB0210FB
:1006300070EE870A4FEA810972EEC72A0C9073EEBA
:10064000E13A059730EE210A08EB810334EE073AD0
:100650006FF0030132EE212A029431EE471A01EBCA
:10066000C20E87ED003A4FF0000B87ED012A0027FC
:1006700084ED006AA7EB5A0AC4ED010A01EB82047B
:10068000C5ED002A0020C5ED013A86ED000A86ED91
:10069000011ADCF8041003950196CDF810C00691FC
:1006A0000D90C1E0C518CDF8249000EB0409CDF8F9
:1006B0001CA099ED006A95ED017A76EE070A00EB31
:1006C0000E01D1ED002AF246DDF830E070EEA23ADC
:1006D000089400EB0E0436EE476AD4ED015A73EE2F
:1006E000A53A0F9859ED011AD5ED004A71EEA46AAA
:1006F000083051ED017A94ED008AC9ED003A71EEAF
:10070000E41A51ED013A76EEA33AAEF1080E94EDFB
:10071000007A32EEE59AAAF1080A33EE877A083BAE
:1007200076EE673A31EE89BA09ED017A33EE887ACE
:10073000DDF82490D6ED023AD6ED034A25EE24AA40
:100740000F9025EE235A0E9827EE24CA08302BEE80
:1007500024DA0E9004EE23AA0D9804EE645A1830A1
:1007600030EEE24A0D9076EEE70A82ED02AA0BEE39
:1007700063CA82ED035A07EE23DA09F1080934EE61
:10078000654A70EEC80A81ED00CA01ED01DA97ED05
:10079000045A97ED057A63EE072A0B9F23EE053A7C
:1007A000083760EE873A64EE074A42EE052A02EE09
:1007B000473A54EE453A40EEC54ACCED022A38EEAF
:1007C000674A8CED033AC5ED013A39EE615AC5ED41
:1007D000004A9BED062A21EE027A34EE464A9BED52
:1007E000073A21EE031ADDF828B000EE437ACDF87F
:1007F00030E024EE036AD64625EE033ADDF81CA06D
:1008000000EE021A0BF1100B05EE426A0AF1010A22
:1008100004EE023A88ED021A88ED037A84ED016A4B
:1008200084ED003A089C083C0598BAF1000F0E9A36
:1008300000EB070100EB020C0F9A91ED020A9CED10
:10084000022A30EE026A024430EE420A00EB090846
:1008500091ED031A9CED033A92ED032A31EE037AEF
:10086000069D31EE431A0B9730EE023ACDF828B0D0
:10087000D2ED020AD8ED032A33EE624A05EB0706F1
:1008800036EE603A05EB0B0736EE206AD8ED021A19
:1008900031EE605A36EE216A77EE423A30EE420A85
:1008A00081ED026A31EE201A92ED036A37EE066A94
:1008B00098ED037A35EE215A36EE076A33EE612A57
:1008C00033EEE23A30EE220A81ED036A31EE611A2C
:1008D0000D9905EB010B7FF4E5AE96ED026A96EDFE
:1008E000037A65EE070A009D25EE065A0423294681
:1008F00044EE060A04EE475AC2ED020A82ED035A9C
:1009000097ED044A97ED055A23EE056A069A23EE01
:10091000043A02EE046A02EE453A8CED026A8CED6E
:10092000033A9BED062A9BED073A21EE034A21EE9E
:10093000021A00EE024A00EE431A88ED024A88EDE0
:10094000031A00F0B5F8049C042362682946029853
:1009500000F0AEF8626804230398294600F0A8F876
:10096000626804230198294610B0BDEC0C8B01B0DD
:10097000BDE8F04F00F09CB82DE9F04381B02DEDBB
:10098000028B0023B3EB920F90460C46054669D0CC
:100990004FEA9800474200BF95ED010A20EE008A19
:1009A00095ED000A00EE008AB0EE480A02F068F801
:1009B000B4EEC00AF1EE10FA03D7B0EE480A02F026
:1009C0005FF884ED000A95ED030A20EE008A95EDAC
:1009D000020A00EE008AB0EE480A02F051F8B4EEC6
:1009E000C00AF1EE10FA03D7B0EE480A02F048F858
:1009F00084ED010A95ED050A20EE008A95ED040AC2
:100A000000EE008AB0EE480A02F03AF8B4EEC00AEE
:100A1000F1EE10FA03D7B0EE480A02F031F884ED97
:100A2000020A05F1200995ED070A20EE008A04F17B
:100A3000100695ED060A00EE008AB0EE480A02F0B4
:100A40001FF8B4EEC00AF1EE10FA03D7B0EE480A70
:100A500002F016F8013784ED030A4D4634469BD167
:100A600034464D4618F003001DD0464295ED010A6C
:100A700020EE008A271D95ED000A00EE008AB0EEF8
:100A8000480A01F0FDFFB4EEC00AF1EE10FA03D7F8
:100A9000B0EE480A01F0F4FF013684ED000A05F1DA
:100AA00008053C46E2D1BDEC028B01B0BDE8F08305
:100AB0002DE9F04F81B02DED108B96B0CDE90332CA
:100AC000019004309FED020A8C460290149101E0DF
:100AD000F304353F4FEADC084FEAC80ACDF81C8022
:100AE000AAEBDC00C00008EB480E139008EB88026C
:100AF0004FEACC074FEA0E14D000029A4FEA48138F
:100B000015904FEA08160D934FEACE054FF0000BF3
:100B1000CDE90B5602EB0309159812ED011A19EDF8
:100B2000013A02EB0A0831EE035A02EB000E0B9871
:100B300018ED016A31EE431A91191EED013A1319AD
:100B400076EE031A564636EE433A02EB000A139845
:100B500051ED012A13ED016A104472EE863A5AED06
:100B6000014A32EEC66AE34450ED012A74EEA25AFD
:100B70003D4674EEE22A75EE634A35EE235A71EE75
:100B8000A53A92ED002A99ED004A98ED007ADEED43
:100B9000000AD1ED006A71EEE51A75EE235A35EEC2
:100BA000635A72EE043A32EE442A37EE204A37EEA8
:100BB000607AD3ED000A76EEA07A76EEE00ADAEDFE
:100BC000006A90ED008A36EE889A42ED015A76EE80
:100BD000C86A09ED015A33EEA78A34EE09AA73EE0A
:100BE000E73A34EE494A78EE0A7A38EE4A8A33EE2A
:100BF00062AA34EE849AC2ED007A34EEC44A89EDDA
:100C0000008A73EEE14A3A4471EEA31A01ED019AAB
:100C100033EE223A6AEE002AC1ED004A77EE663AD8
:100C200003ED014A37EE267AC3ED001A71EE626ACF
:100C3000149931EE221A0D9B23EE003A8B4563EE98
:100C4000802A27EE007A76EE433A36EE033A32EE09
:100C5000625A30EE876A32EE222A30EEC77A71EE9F
:100C6000060A32EE434A31EE461A33EE022A48EDC6
:100C7000010A36EE873A88ED004A00ED011A35EE9A
:100C8000631A80ED002A36EEC72A0EED013A33EEE4
:100C9000853A8EED001A0AED012A8AED003AB24635
:100CA0000C9EFFF437AFBCF1400FC0F08B810EA853
:100CB00080E890140398002480B2019E01250690DC
:100CC0000798C0EBC000C000059000BF0698044420
:100CD000049B03EBC4010A9491ED000A03EB041298
:100CE0008DED130A92ED000A04EB44028DED120A19
:100CF00003EB441108964FEAC20A099503EBC200C0
:100D000091ED004A04EB84014FEA021B03EB02124F
:100D100090ED003AC80003EBC10192ED006AC4EB0C
:100D2000C4024FEAC40C91ED005AD10003EBC20299
:100D300092ED007A0CF104024FEA041E1A44D2ED3F
:100D4000000A0EF1040204301A441844D2ED001ACD
:100D50000AF10402D0ED004A0BF104004FEA4419F5
:100D60001A441844D2ED002A09F10402D0ED005AC9
:100D7000081D1A441844D2ED003AD0ED006AB4467A
:100D80002B460D9D9FED921ADDE90B76DDF8148060
:100D900010980CEB05010CEB00021598DCED027AC3
:100DA00091ED028A60440E9C37EE88BA0CEB060B7C
:100DB00077EEC87A0CEB040992ED028A90ED029A64
:100DC00038EE09CA0CEB070E38EE49AA0CEB080AFC
:100DD0009BED028A99ED029A38EE09DA38EE499ACB
:100DE0009EED028A9AED02EA38EE0EFA7BEE0D8A4B
:100DF00038EE4EEA7CEE0F9A3BEE4DBA3CEE4FCA0F
:100E000038EEA98A38EEE9DA9CED03FAD1ED038ACF
:100E10007FEE289A3FEE68FAD2ED038AD0ED03AA5E
:100E200078EEAABA78EEEA8ADBED03AAD9ED03CA16
:100E30007AEEACDA7AEEECAADEED03CADAED03EA7A
:100E40007CEEAEFA8CED028A7CEEEECA79EEEDEA2B
:100E50003BEEEF0A79EEAD9A7BEEAFBA7BEE00DAAD
:100E60003BEE400A39EEEBBA9DED122A79EEAB9AD1
:100E70007EEECCBA63EE8BFA3CEE2ECACCED039A32
:100E800024EE0BBA62EE2DEA44EE0DFA03EECDBA73
:100E900022EE2BDA41EEABEAC1ED02FA66EE00BAC1
:100EA00081ED03BA01EEEDDA66EE0CDACBED02EA83
:100EB00045EE8CBA3AEE4ECA8BED03DA45EEC0DA57
:100EC0003AEE0E0AC9ED02BA2CEE01AA38EEECCACF
:100ED000C9ED03DA38EEACEA77EECA8A77EE8A7AA1
:100EE00020EE010A2CEE01AA2EEE01CA39EE40EAEC
:100EF00039EE000A3FEE4A9A7AEE8CCA3FEE0AAA11
:100F00003AEECCCA37EEACFA77EEEC7A78EE8CAAF1
:100F100038EECCCA7AEE408A30EE0A0A39EE4EAA92
:100F20009DED132A26EE808A27EE000A60EEA8CAFD
:100F30003EEE099A22EE28EA07EE278A24EE8ABAC4
:100F400006EEE70A65EE0A7A42EE0FCA00EECFEA35
:100F500005EE2ABA44EEEA7AC2ED02CA22EE89AA66
:100F600082ED03EA23EE099A8AED028A8AED030AEA
:100F700080ED02BA03EE0CAAC0ED037A02EECC9A21
:100F800011980344149883420F9884448EED02AA6A
:100F90008EED039AFFF4FCAE099D01350798089E7B
:100FA000854206F108060A9CFFF490AE11983F288E
:100FB00003984FEAC000DDF81CC09FED050A0390BE
:100FC0003FF688AD16B0BDEC108B01B0BDE8F08FD8
:100FD000F304353F70B50546AC6B206C00F0500053
:100FE00050BB206C40F4007020642068806800F0E2
:100FF0004050E8B9A069D8B92068C06A00F4700010
:1010000020B12068806800F4806088B9206840685A
:1010100020F0200021684860206C20F4807020645B
:10102000206C00F4805018B9206C40F0010020645E
:10103000204600F055FA03E0A06BC16C28468847B3
:1010400070BD70B50546AC6B40202064606C40F00C
:1010500004006064204600F075FA70BD70B5044667
:10106000A56B284600F048FA70BD00005749096892
:1010700021F44031564AC2F804131146D1F8041342
:1010800042681143514A11600168496821F4807136
:101090000268516001684A68016942EA01210268F8
:1010A00051600168496821F040710268516001682F
:1010B000496882681143026851600168896821F4B7
:1010C00000610268916001688968C2681143026822
:1010D0009160404A816A914218D00168896821F084
:1010E00070610268916001688968826A11430268D0
:1010F00091600168896821F040510268916001683F
:101100008968C26A1143026891600BE001688968CE
:1011100021F07061026891600168896821F0405196
:10112000026891600168896821F00201026891609B
:1011300001688A68816942EA410102689160016A36
:10114000A1B10168496841F4006102685160016819
:10115000496821F460410268516001684A68416A47
:10116000491E42EA41310268516005E00168496860
:1011700021F40061026851600168C96A21F47001BC
:101180000268D1620168CA6A818B491E42EA015134
:101190000268D1620168896821F400710268916077
:1011A00001688A68016B42EA412102689160016826
:1011B000896821F480610268916001688A684169E8
:1011C00042EA8121026891607047000004230140D7
:1011D000002001400100000F00BFFEE710B50248EB
:1011E00000F064FB10BD000080000020014608787C
:1011F00010381823B0FBF3F20848805CC865032A56
:1012000005D908686FF30900001D886503E00868C8
:101210006FF309008865886D70470000782B00081F
:10122000014600208A6A8B69CBB932B1012A0DD000
:10123000022A03D0032A10D10EE000BFCB6A03F0CC
:101240008073B3F1807F00D1012007E0CB6AB3F156
:10125000C07F00D1012001E000E000BF34E08B69D5
:10126000B3F5005F1AD132B1012A07D0022A03D0A8
:10127000032A11D10AE000BF01200EE0CB6A03F07F
:101280008073B3F1807F00D1012006E0CB6AB3F117
:10129000C07F00D1012000E000BF15E032B1012A7B
:1012A00005D0022A04D0032A0CD103E000BF00BFFE
:1012B000012008E0CB6A03F08073B3F1807F00D196
:1012C000012000E000BF00BF704730B5046824680B
:1012D00024F4802405682C60046863608468402CD2
:1012E00004D10468A2600468E16003E00468A160BE
:1012F0000468E26030BD704710B501230022084940
:101300000848FFF71DF84FF4806207490448FFF7CB
:1013100033FB4FF4806204490148FFF72DFB10BDF9
:10132000E0100020A8390008E020002018B502468F
:101330000020009000BF92F83C00012801D102205B
:1013400018BD012082F83C0000BF0868092822D996
:101350001068C0680B780A3B03EB43040723A340E3
:1013600098431368D860594B0868984207D11068B1
:10137000C0680B7A40EA03601368D8601FE00B78FE
:101380000A3B03EB4303886898401368DB68184303
:101390001368D86013E0106800690B7803EB43040E
:1013A0000723A3409843136818610B7803EB4303AA
:1013B0008868984013681B69184313681861486867
:1013C000072817D21068406B0B795B1E03EB830470
:1013D0001F23A340984313685863088880B20B7991
:1013E0005B1E03EB8303984013685B6B1843136821
:1013F000586331E048680D2817D21068006B0B79EC
:10140000DB1F03EB83041F23A34098431368186377
:10141000088880B20B79DB1F03EB830398401368C5
:101420001B6B18431368186316E01068C06A0B79C9
:101430000D3B03EB83041F23A34098431368D8623A
:10144000088880B20B790D3B03EB83039840136847
:10145000DB6A18431368D8621D4B1068984208D1A4
:101460000868122805D11B48006840F48000C3F8C2
:101470000403174B1068984220D1144B0868984217
:1014800002D00868112819D11248006840F4000001
:10149000104B18600D4B086898420FD10E48006839
:1014A0000E4BB0FBF3F000EB80004000009002E038
:1014B0000098401E009000980028F9D100BF00203D
:1014C00082F83C0000BF00BF3AE7000012000010A5
:1014D00000200140042301403000002040420F0062
:1014E0000121034A11700021024A11707047000067
:1014F000010000200000002001210B4A1170002192
:101500000A4A11700A4909880A4A1160084949883B
:10151000094A116006498988084A11600449C98846
:10152000074A116070470000000000200100002001
:10153000E000002014000020180000201C00002003
:10154000200000207047000070B5044600250CB94B
:10155000012070BD1549A06A884200D000BF206CF0
:1015600030B90020606484F83C00204600F020F888
:10157000206C00F0100088B9206C20F4885040F0F6
:10158000020020642046FFF771FD00206064206C9B
:1015900020F0020040F00100206400E0012500BFBF
:1015A000002084F83C0000BF2846D2E70100000F6D
:1015B00010B586B004461F492068884238D100BF64
:1015C0001D48006840F480701B49086008460068A8
:1015D00000F48070009000BF00BF0F200190032036
:1015E00002900020039001A9144800F045FB144824
:1015F0001449086000204860002112488160C160E1
:101600004FF48061016149004161890081614911A4
:10161000C16100210162416200F068FA18B17721CE
:1016200009A001F02BFA00BF0648A063846300BF45
:1016300006B010BD002001404438024000000240C6
:1016400010640240800000202E2E2F5372632F73EF
:10165000746D3332663778785F68616C5F6D737074
:101660002E63000008B501460020009000BF91F8ED
:101670003C00012801D1022008BD012081F83C0076
:1016800000BF0868806800F00100A0B908688068A1
:1016900040F001000A6890602E4800682E4AB0FBB6
:1016A000F2F000EB4000009002E00098401E009035
:1016B00000980028F9D10868806800F0010000282F
:1016C00045D0086C40F20162904340F48070086499
:1016D0000868406800F4806028B1086C20F400506D
:1016E00040F480500864086C00F4805020B1486CCD
:1016F00020F00600486401E00020486400BF00209C
:1017000081F83C0000BF6FF022000A6810601348A7
:10171000006800F01F0058B90868806800F0405069
:10172000A8B90868806840F080400A6890600EE0C0
:101730000B4A086890420AD10868806800F040505F
:1017400028B90868806840F080400A6890600020EE
:1017500092E700003000002040420F0004230140C7
:1017600000200140F8B504460D46164600200090C2
:1017700000BF94F83C00012801D10220F8BD0120EF
:1017800084F83C0000BF2068806800F00100A0B928
:101790002068806840F00100216888603C4800684B
:1017A0003C49B0FBF1F000EB4000009002E00098F3
:1017B000401E009000980028F9D12068806800F051
:1017C0000100002862D0206C40F20161884340F49F
:1017D000807020642068406800F4806028B1206C2C
:1017E00020F4005040F480502064206C00F48050BD
:1017F00020B1606C20F00600606401E000206064AD
:1018000000BF002084F83C0000BF2348A16BC863E0
:101810002248A16B08642248A16BC8646FF02200C3
:10182000216808602068406840F080602168486056
:101830002068806840F4807021688860226802F126
:101840004C0133462A46A06B00F0C6F915480068E3
:1018500000F01F0058B92068806800F0405028B997
:101860002068806840F08040216888600EE00E4962
:10187000206888420AD12068806800F0405028B96A
:101880002068806840F0804021688860002075E70B
:101890003000002040420F00D50F00085D10000806
:1018A000431000080423014000200140F8B504461D
:1018B000002000908C4800684FF41651B0FBF1F7FF
:1018C000A56D2E6894F85C1008208840304098B1CF
:1018D0002068006800F0040070B12068006820F003
:1018E00004002168086094F85C1008208840A86013
:1018F000606D40F00100606594F85C100120884044
:10190000304068B12068406900F0800040B194F830
:101910005C1001208840A860606D40F002006065A6
:1019200094F85C1004208840304068B1206800685A
:1019300000F0020040B194F85C1004208840A860D8
:10194000606D40F00400606594F85C1010208840E1
:10195000304078B32068006800F0080050B394F875
:101960005C1010208840A8602068006800F4802087
:1019700080B12068006800F4002028B9206CC8B14C
:101980002046216C884715E0A06C98B12046A16CD8
:1019900088470FE02068006800F4807028B920684C
:1019A000006820F0080021680860206C10B1204613
:1019B000216C884794F85C10202088403040002833
:1019C00065D02068006800F0100000285FD094F80F
:1019D0005C1020208840A86094F83500052828D1A4
:1019E0002068006820F016002168086020684069BF
:1019F00020F0800021684861206C08B9A06C28B1F3
:101A00002068006820F008002168086094F85C10E5
:101A10003F208840A86000BF002084F8340000BF49
:101A2000012084F83500206D10B12046216D8847D3
:101A3000F8BD2068006800F4802080B1206800684C
:101A400000F4002028B9606C10B12046616C884712
:101A50001DE0E06BD8B12046E16B884717E02068B5
:101A6000006800F4807068B92068006820F01000F9
:101A70002168086000BF002084F8340000BF012006
:101A800084F83500E06B10B12046E16B8847606D4B
:101A900038B3606D00F00100F0B1052084F8350026
:101AA0002068006820F001002168086000BF0098ED
:101AB000401C0090B84200D905E02068006800F0A2
:101AC00001000028F3D100BF00BF002084F83400DB
:101AD00000BF012084F83500E06C10B12046E16CB5
:101AE000884700BFA4E70000300000202DE9F04146
:101AF0000446002500F0CCF9074614B90120BDE8E2
:101B0000F081606A00B100BF00BF002084F834009B
:101B100000BF022084F835002068006820F0010032
:101B2000216808600AE000F0B3F9C01B052805D958
:101B300020206065032084F83500E0E72068006815
:101B400000F001000028EED120680568214805401A
:101B5000D4E901010843E168084321690843616948
:101B60000843A1690843E1690843216A0843054322
:101B7000606A042803D1D4E90B01084305432068B7
:101B800005602068456925F00705606A0543606ABD
:101B900004280DD1A06A0543E06A48B12046FFF74A
:101BA0003FFB28B140206065012084F83500A6E79E
:101BB000206845612046FFF719FB064694F85C1043
:101BC0003F208840B06000206065012084F8350027
:101BD000002094E73F8010E02DE9F04704460D46D1
:101BE00016461F464FF00008D4F8589000BF94F8EE
:101BF0003400012802D10220BDE8F087012084F8DA
:101C0000340000BF94F8350001282BD1022084F85D
:101C10003500002060653B46324629462046FFF7E6
:101C200054FB94F85C103F208840C9F808002068F5
:101C3000006840F01600216808602068406940F0A4
:101C4000800021684861206C28B12068006840F05D
:101C50000800216808602068006840F001002168E1
:101C6000086006E000BF002084F8340000BF4FF099
:101C700002084046C0E70000F8B502460B460021C6
:101C800000250024002000BFE4E0012606FA01F54B
:101C90001E6806EA0504AC4271D15E68022E02D0CD
:101CA0005E68122E13D1CF0802F1200656F82700E5
:101CB0004E07F70E0F26BE40B0434F07FF0E1E69BA
:101CC000BE403043CF0802F1200646F827001068D6
:101CD0004F000326BE40B0431E7906F003064F00B6
:101CE000BE40304310605E68012E08D05E68022E50
:101CF00005D05E68112E02D05E68122E13D1906856
:101D00004F000326BE40B0434F00DE68BE40304364
:101D10009060506801268E40B0431E79C6F30016CD
:101D20008E4030435060D0684F000326BE40B04321
:101D30004F009E68BE403043D0605E6806F080561B
:101D4000B6F1805FA8D100BF444E366846F48046A5
:101D5000424F3E603E46366806F48046009600BF1D
:101D600000BF3F4E8F0856F827008E07370F0F260B
:101D7000BE40B0433B4EB24202D100262EE068E0A6
:101D8000394EB24201D1012628E0384EB24201D18B
:101D9000022623E0364EB24201D103261EE0354E24
:101DA000B24201D1042619E0334EB24201D10526D8
:101DB00014E0324EB24201D106260FE0304EB2425C
:101DC00001D107260AE02F4EB24201D1082605E0D4
:101DD0002D4EB24201D1092600E00A268F073F0F9F
:101DE000BE4030431E4E8F0846F82700274E30680D
:101DF000A0435E6806F48036B6F5803F00D12043EC
:101E0000224E3060361D3068A0435E6806F400360E
:101E1000B6F5003F00D120431C4E361D3060361D04
:101E20003068A0435E6806F48016B6F5801F00D1C6
:101E30002043164E08363060361D3068A0435E6879
:101E400006F40016B6F5001F00D120430F4E0C36E5
:101E50003060491C1029FFF418AFF8BD4438024027
:101E6000083801400000024000040240000802401F
:101E7000000C024000100240001402400018024012
:101E8000001C02400020024000240240003C0140AF
:101E900001480068704700002400002003480068E3
:101EA000034909780844014908607047240000206C
:101EB0002C00002010B5032000F0C4F8002000F032
:101EC00005F800F029F8002010BD000070B50446A8
:101ED0000E4800784FF47A71B1FBF0F00C490968B4
:101EE000B1FBF0F5284600F058FC08B1012070BDA8
:101EF000102C07D200222146501E00F064F805483D
:101F0000046001E00120F2E70020F0E72C0000204F
:101F1000300000202800002008B500BF22480068DB
:101F200040F08050204908600846006800F080506A
:101F3000009000BF00BF00BF081D006840F4804053
:101F4000091D08600846006800F48040009000BF4A
:101F500000BF032000F076F8002211466FF00B005E
:101F600000F031F8002211466FF00A0000F02BF863
:101F7000002211466FF0090000F025F800221146FA
:101F8000501F00F020F800221146101F00F01BF82F
:101F900000221146901E00F016F800221146501E35
:101FA00000F011F808BD00004038024000BF00F00A
:101FB0001F02012191404209920002F1E022C2F881
:101FC000001100BF70472DE9F05F80460D461646B0
:101FD000002700F09BFC074639462A46334601F0AD
:101FE0000700C0F1070ABAF1040F02D94FF0040A42
:101FF00001E0C0F1070AD14600F1040ABAF1070F67
:1020000002D24FF0000A01E0A0F1030AD4464FF0DB
:10201000010A0AFA09FAAAF1010A0AEA020A0AFA04
:102020000CFA4FF0010B0BFA0CFBABF1010B0BEAB6
:10203000030B4AEA0B042146404600F06FFCBDE862
:10204000F09F000000BF00F00702064B19684FF632
:10205000FF031940044B0B4343EA0221014B196073
:1020600000BF70470CED00E00000FA0570B50446B3
:102070000D4600260CB9012070BD5C48006800F0D8
:102080000F00A8420ED25948006820F00F002843E4
:10209000564908600846006800F00F00A84201D0C9
:1020A0000120E9E7207800F0020002281DD1207805
:1020B00000F00400042805D14D48006840F4E050C9
:1020C0004B490860207800F00800082805D14848EE
:1020D000006840F46040464908604548006820F0C8
:1020E000F000A168084342490860207800F0010030
:1020F00090B36068012807D13D4808380068C0F3F4
:102100004040A0B90120B7E76068022807D13848ED
:1021100008380068C0F3406048B90120ACE7344893
:1021200008380068C0F3400008B90120A4E730482F
:10213000006820F00300616808432D490860FFF73C
:10214000A7FE064609E0FFF7A3FE801B41F2883197
:10215000884202D903208FE707E02548006800F095
:102160000C006168B0EB810FEDD12048006800F0F1
:102170000F00A8420ED91D48006820F00F00284328
:102180001A4908600846006800F00F00A84201D014
:10219000012071E7207800F00400042807D11448DA
:1021A000006820F4E050E168084311490860207895
:1021B00000F00800082808D10D48006820F46040AD
:1021C000216940EAC1000A49086000F01DF8084989
:1021D0000968C1F30311074A515CC8400649086009
:1021E0000020FFF773FE002046E70000003C02409D
:1021F00008380240802B00083000002001480068A9
:1022000070470000300000202DE9F0470024002531
:102210000026A1462548006800F00C0020B10428E3
:1022200005D008283AD105E0DFF8849039E0DFF8DE
:10223000849036E01D48001F006800F03F041B48F2
:10224000001F006800F4800078B11A481749091F80
:102250000968C1F38811A0FB0170014622460023E2
:102260003846FDF7E5FF05460EE011480F49091F06
:102270000968C1F38811A0FB0170014622460023C2
:102280003846FDF7D5FF05460848001F0068C0F333
:102290000140401C4600B5FBF6F902E0DFF8109063
:1022A00000BF00BF4846BDE8F08700000838024084
:1022B0000024F40040787D01F8B5044600260CB9EE
:1022C0000120F8BD207800F00100002871D0F84806
:1022D000006800F00C0004280DD0F548006800F0FC
:1022E0000C00082813D1F248001F006800F4800099
:1022F000B0F5800F0BD1EE4808380068C0F34040BD
:10230000002869D06068002866D10120D9E700BFA5
:102310006068B0F5803F08D1E5480838006840F4AF
:102320008030E349083908602EE0606868B9E04809
:102330000838006820F48030DD4908390860084614
:10234000006820F4802008601EE06068B0F5A02FCF
:102350000DD1D7480838006840F48020D4490839A6
:1023600008600846006840F4803008600CE0D048FF
:102370000838006820F48030CD49083908600846E4
:10238000006820F48020086000BF606890B1FFF70B
:102390007FFD054606E0FFF77BFD401B642801D961
:1023A00003208EE7C24808380068C0F34040002888
:1023B000F1D011E0FFF76CFD054606E0FFF768FD80
:1023C000401B642801D903207BE7B948083800681E
:1023D000C0F340400028F1D1207800F0020002282C
:1023E00069D1B348006800F00C0058B1B0480068EB
:1023F00000F00C0008281CD1AD48001F006800F454
:102400008000B0B9AA4808380068C0F3400020B185
:10241000E068012801D0012053E7A548083800688A
:1024200020F0F800216940EAC100A149083908609C
:1024300041E0E06828B39E480838006840F0010099
:102440009B4908390860FFF723FD054606E0FFF7C2
:102450001FFD401B022801D9032032E794480838A9
:102460000068C0F340000028F1D0914808380068A7
:1024700020F0F800216940EAC1008D490839086060
:1024800019E08B480838006820F0010088490839B5
:102490000860FFF7FDFC054606E0FFF7F9FC401B6E
:1024A000022801D903200CE7814808380068C0F3EE
:1024B00040000028F1D1207800F00800082836D12B
:1024C0006069D0B17A486C30006840F0010078490A
:1024D0006C310860FFF7DCFC054606E0FFF7D8FC2E
:1024E000401B022801D90320EBE671486C300068DC
:1024F000C0F340000028F1D019E06D486C3000684E
:1025000020F001006A496C310860FFF7C1FC054604
:1025100006E0FFF7BDFC401B022801D90320D0E6EE
:1025200063486C300068C0F340000028F1D1207887
:1025300000F00400042874D15D483830006800F0D1
:10254000805080B900BF5A483830006840F0805051
:102550005749383108600846006800F08050009004
:1025600000BF00BF01265348006800F48070B0B976
:102570005048006840F480704E490860FFF788FCBE
:10258000054606E0FFF784FC401B642801D90320C0
:1025900097E64848006800F480700028F2D000BF39
:1025A000A068012808D142486830006840F0010066
:1025B0003F49683108602DE0A06868B93C48683040
:1025C000006820F001003A49683108600846006858
:1025D00020F0040008601DE0A06805280DD13448F3
:1025E0006830006840F004003149683108600846EE
:1025F000006840F0010008600CE02D486830006879
:1026000020F001002A49683108600846006820F07F
:102610000400086000BFA068A8B1FFF739FC0546B8
:1026200009E02EE0FFF734FC401B41F2883188427C
:1026300001D9032045E61E4868300068C0F3400019
:102640000028EFD013E0FFF723FC054608E0FFF772
:102650001FFC401B41F28831884201D9032030E63B
:10266000134868300068C0F340000028EFD1012E05
:1026700007D10F483830006820F080500C493831BD
:102680000860A069F0B30A48006800F00C00082850
:1026900068D0A06902284DD105480838006820F0AC
:1026A0008070034908390860FFF7F2FB05460AE02D
:1026B0000838024000700040FFF7EAFB401B022888
:1026C00001D90320FDE529480068C0F340600028D7
:1026D000F2D1D4E907010843616A40EA811101227D
:1026E000A06AC2EB500041EA00412C20005D41EAA3
:1026F00000613020005D41EA00701C49091D08603E
:10270000081F00E030E0006840F08070091F08609A
:10271000FFF7BEFB054606E0FFF7BAFB401B0228A9
:1027200001D90320CDE511480068C0F340600028BE
:10273000F2D019E00D48006820F080700B49086065
:10274000FFF7A6FB054606E0FFF7A2FB401B0228A9
:1027500001D90320B5E505480068C0F340600028B2
:10276000F2D101E00120ACE50020AAE500380240EA
:10277000042808D14FF0E021096941F004014FF02D
:10278000E022116107E04FF0E021096921F0040126
:102790004FF0E02211617047704770B5044625463E
:1027A000681EB0F1807F01D301200FE0681E4FF05A
:1027B000E02148610F214FF0FF3000F0AFF800201A
:1027C0004FF0E021886107200861002070BD10B53E
:1027D000FFF7E2FF10BD00BFFEE700001FB52C4869
:1027E0002C4908600020486000212A4881600121AE
:1027F0000161816100210162C1622749816200217A
:10280000C1600421C161012101634161FEF79CFEA9
:1028100018B1FB2121A000F031F900200090012027
:1028200001900020029069461A48FEF77FFD20B112
:1028300040F2051119A000F021F9012000900220BA
:10284000019069461348FEF771FD20B14FF487717E
:1028500012A000F013F902200090032001906946B5
:102860000C48FEF763FD20B140F217110BA000F0F9
:1028700005F9032000900420019069460548FEF701
:1028800055FD20B14FF4907104A000F0F7F81FBD82
:1028900000200140380000200100000F2E2E2F5391
:1028A00072632F6D61696E2E6300000008B500BF72
:1028B0000A48006840F4800008490860084600683B
:1028C00000F48000009000BF00BF002211463820B5
:1028D000FFF779FB3820FFF769FB08BD303802406D
:1028E00008B500BF0648006840F0010004490860D0
:1028F0000846006800F00100009000BF00BF08BD5E
:102900003038024000BFFEE7704700000248006810
:10291000C0F30220704700000CED00E010B5002865
:1029200007DA0A07140E054A00F00F031B1FD454E0
:1029300003E00A07130E024A135410BD18ED00E01D
:1029400000E400E07047704710B5FFF7A7FAFFF703
:102950003EFF10BD10B594B000BF2848006840F09D
:102960008050264908600846006800F080500190B9
:1029700000BF00BF00BF2248006820F4404040F480
:1029800080401F4908600846006800F440400190FC
:1029900000BF00BF0220079001200A9010200B907A
:1029A00000200D9007A8FFF787FC18B1C82115A0DB
:1029B00000F064F80F20029000200390049005902E
:1029C0000690002102A8FFF751FB18B1D6210DA0F7
:1029D00000F054F8FFF712FC4FF47A71B0FBF1F4F9
:1029E0002046FFF7DAFE0420FFF7C2FE0022114660
:1029F000501EFFF7E8FA14B010BD00004038024046
:102A0000007000402E2E2F5372632F6D61696E2E61
:102A1000630000001448006840F470001249086028
:102A20001248006840F001001049086000200F497A
:102A3000083108600D4800680D4908400B490860DE
:102A40000C48091D0860081F006820F48020091F39
:102A50000860002005490C3108604FF00060024911
:102A6000803908607047000088ED00E000380240BF
:102A7000FFFFF6FE1030002400BFFEE700BFFEE7B8
:102A800010B52DED028BB1EEC08A18EE100A20F0C1
:102A90000040C0F1FF40C00F0AD010EE100A20F035
:102AA0000040C0F1FF40C00F04BF012000F014F847
:102AB000B0EE480ABDEC028B10BD02E008C8121F40
:102AC00008C1002AFAD170477047002001E001C117
:102AD000121F002AFBD170470149086070470000AF
:102AE0003400002010B5FFF7E5F9FFF733FFFFF7DB
:102AF000F7FEFFF7DBFEFFF771FE1A48FEF7B2FDA7
:102B000008B1002010BD4FF4806217491548FEF748
:102B100029FE08B10020F5E722E014480078F8B15A
:102B2000002014E0104931F8101000EE101AB8EE31
:102B3000400A0F4A02EBC00181ED000A9FED0D0A29
:102B40004100491C02EB810181ED000A401CB0F5F7
:102B5000007FE7DB0648FEF7CFFB00200349087043
:102B6000DBE7000038000020E0000020000000202B
:102B7000E0100020000000000006101600061016ED
:102B8000000000000000000001020304060708091D
:102B90000000000001020304080000101000000201
:102BA0001800001220000004280000143000000665
:102BB0003800001640000008480000185000000AC5
:102BC0005800001A6000000C6800001C7000000E25
:102BD0007800001E8000000888004010900040022D
:102BE00098004012A0004004A8004014B000400625
:102BF000B8004016C0004008C8004018D000400A85
:102C0000D800401AE000400CE800401CF000400EE4
:102C1000F800401E00010008080180101001800229
:102C200018018012200180042801801430018006E0
:102C30003801801640018008480180185001800A40
:102C40005801801A6001800C6801801C7001800EA0
:102C50007801801E800140088801C0109001C002E8
:102C60009801C012A001C004A801C014B001C006A0
:102C7000B801C016C001C008C801C018D001C00A00
:102C8000D801C01AE001C00CE801C01CF001C00E60
:102C9000F801C01E00020008080200111002000323
:102CA0001802001320020005280200153002000758
:102CB0003802001740020009480200195002000BB8
:102CC0005802001B6002000D6802001D7002000F18
:102CD0007802001F800280088802401190024003A1
:102CE00098024013A0024005A8024015B002400718
:102CF000B8024017C0024009C8024019D002400B78
:102D0000D802401BE002400DE802401DF002400FD7
:102D1000F802401F000340080803801110038003DD
:102D200018038013200380052803801530038007D3
:102D30003803801740038009480380195003800B33
:102D40005803801B6003800D6803801D7003800F93
:102D50007803801F8003C0088803C0119003C0035C
:102D60009803C013A003C005A803C015B003C00793
:102D7000B803C017C003C009C803C019D003C00BF3
:102D8000D803C01BE003C00DE803C01DF003C00F53
:102D9000F803C01F000400100804081010040011FC
:102DA0001804081220040810280408143004080627
:102DB0003804081640040808480408185004080A93
:102DC0005804081A6004080C6804081C7004080EF3
:102DD0007804081E80040018880448109004001924
:102DE00098044812A0040818A8044814B00448061F
:102DF000B8044816C0044808C8044818D004480A53
:102E0000D804481AE004480CE804481CF004480EB2
:102E1000F804481E000540100805881010054011F0
:102E200018058812200548102805881430058806E2
:102E30003805881640058808480588185005880A0E
:102E40005805881A6005880C6805881C7005880E6E
:102E50007805881E800540188805C810900540191F
:102E60009805C812A0054818A805C814B005C806DA
:102E7000B805C816C005C808C805C818D005C80ACE
:102E8000D805C81AE005C80CE805C81CF005C80E2E
:102E9000F805C81E000680100806081110068011EB
:102EA000180608132006881028060815300608079B
:102EB0003806081740060809480608195006080B86
:102EC0005806081B6006080D6806081D7006080FE6
:102ED0007806081F80068018880648119006801919
:102EE00098064813A0068818A8064815B006480793
:102EF000B8064817C0064809C8064819D006480B46
:102F0000D806481BE006480DE806481DF006480FA5
:102F1000F806481F0007C010080788111007C011E5
:102F2000180788132007C810280788153007880756
:102F30003807881740078809480788195007880B01
:102F40005807881B6007880D6807881D7007880F61
:102F50007807881F8007C0188807C8119007C01914
:102F60009807C813A007C818A807C815B007C8074E
:102F7000B807C817C007C809C807C819D007C80BC1
:102F8000D807C81BE007C80DE807C81DF007C80F21
:102F9000F807C81F08081010100840081808101279
:102FA0002008001128081014300880113808101665
:102FB000480810185008100A5808101A6008100C19
:102FC0006808101C7008100E7808101E8008000A8F
:102FD000880850109008000B98085012A008080AA2
:102FE000A8085014B008080BB8085016C008100AFA
:102FF000C8085018D008500AD808501AE008500CD9
:10300000E808501CF008500EF808501E08099010EF
:103010001009800918099012200900192809901434
:1030200030098019380990164009000B480990189A
:103030005009900A5809901A6009900C6809901C70
:103040007009900E7809901E8009400A8809D010F6
:103050009009400B9809D012A009480AA809D01479
:10306000B009480BB809D016C009500AC809D018D1
:10307000D009D00AD809D01AE009D00CE809D01C30
:10308000F009D00EF809D01E080A1011180A101302
:10309000200A4011280A1015300AC011380A1017EA
:1030A000480A1019500A100B580A101B600A100D1C
:1030B000680A101D700A100F780A101F880A501134
:1030C000900A800B980A5013A00A5011A80A5015B4
:1030D000B00A880BB80A5017C00A800BC80A5019EA
:1030E000D00A500BD80A501BE00A500DE80A501DB8
:1030F000F00A500FF80A501F080B9011180B90138C
:10310000200B4019280B9015300BC019380B901765
:10311000480B9019500B900B580B901B600B900DA7
:10312000680B901D700B900F780B901F880BD011BF
:10313000900BC00B980BD013A00B5019A80BD015F7
:10314000B00BC80BB80BD017C80BD019D80BD01BBD
:10315000E00BD00DE80BD01DF00BD00FF80BD01FFB
:10316000000C0012080C1810100C0013180C181288
:10317000200C0812280C1814300C0813380C1816E0
:10318000400C1012480C1818500C1013580C181A38
:10319000600C1812680C181C700C180E780C181E95
:1031A000800C001A880C5810900C001B980C5812B8
:1031B000A00C081AA80C5814B00C081BB80C581610
:1031C000C00C101AC80C5818D00C101BD80C581A68
:1031D000E00C181AE80C581CF00C580EF80C581E8D
:1031E000000D4012080D9810100D4013180D981284
:1031F000200D4812280D9814300D4813380D9816DC
:10320000400D5012480D9818500D5013580D981A33
:10321000600D5812680D981C700D980E780D981E50
:10322000800D401A880DD810900D401B980DD812B3
:10323000A00D481AA80DD814B00D481BB80DD8160B
:10324000C00D501AC80DD818D00D501BD80DD81A63
:10325000E00D581AE80DD81CF00DD80EF80DD81E48
:10326000000E8012080E1811100E8013180E18137D
:10327000200E8812280E1815300E8813380E1817D5
:10328000400E9012480E1819500E9013580E181B2D
:10329000600E9812680E181D700E180F780E181F09
:1032A000800E801A880E5811900E801B980E5813AD
:1032B000A00E881AA80E5815B00E881BB80E581705
:1032C000C00E901AC80E5819D00E901BD80E581B5D
:1032D000E00E981AE80E581DF00E580FF80E581F01
:1032E000000FC012080F9811100FC013180F981379
:1032F000200FC812280F9815300FC813380F9817D1
:10330000400FD012480F9819500FD013580F981B28
:10331000600FD812680F981D700F980F780F981FC4
:10332000800FC01A880FD811900FC01B980FD813A8
:10333000A00FC81AA80FD815B00FC81BB80FD81700
:10334000C00FD01AC80FD819D00FD01BD80FD81B58
:10335000E00FD81AE80FD81DF00FD81BF80FD81FB0
:1033600008102010101040101810201228102014DF
:103370003010881038102016401000114810201806
:10338000501040115810201A601008126810201CAC
:10339000701088127810201E8010001288100812F9
:1033A0009010401298106012A0102012A810601403
:1033B000B0106012B8106016C0100013C81060186A
:1033C000D0104013D810601AE0101812E810601CDA
:1033D000F0109812F810601E081120121011401100
:1033E0001811A012201108182811A01430118818E3
:1033F0003811A0164811A0185811A01A6011081A07
:103400006811A01C7011881A7811A01E801110126A
:1034100088111812901150129811E012A01118186A
:10342000A811E014B0119818B811E016C0111013CB
:10343000C811E018D0115013D811E01AE011181A71
:10344000E811E01CF011981AF811E01E00120018A3
:1034500008120818101240181812201320122018F1
:103460002812201530126018381220174012001947
:1034700048122019501240195812201B60122019AE
:103480006812201D7012C8127812201F8012001AB4
:103490008812081A9012401A98126013A012201A6B
:1034A000A8126015B012601AB8126017C012001B83
:1034B000C8126019D012401BD812601BE012201BEA
:1034C000E812601DF012601BF812601F0013101844
:1034D00008131818101350181813A01320134818A5
:1034E0002813A0153013C8183813A017401310194B
:1034F0004813A019501350195813A01B6013481AF1
:103500006813A01D7013C81A7813A01F8013101A17
:103510008813181A9013501A9813E013A013581810
:10352000A813E015B013D818B813E017C013101B78
:10353000C813E019D013501BD813E01BE013581A1E
:10354000E813E01DF013D81AF813E01F0814201434
:1035500010140015181420153014081538142816E6
:103560004014001548142818501410155814281A1F
:10357000601420156814281C701418157814281E5F
:103580008014001C8814201C9014001D9814201D09
:10359000A014081CA814281CB014081DB814681620
:1035A000C014101CC8146818D014101DD814681A40
:1035B000E014181CE814681CF014181DF814681E98
:1035C0000815201510154015181560152015281818
:1035D0002815281C301548153815A8164815A818A0
:1035E0005815A81A6015281A6815A81C7015A81A6D
:1035F0007815A81E8015401C8815601C9015401D6C
:103600009815601DA015481CA815681CB015481D0C
:10361000B815E816C015501CC815E818D015501D6F
:10362000D815E81AE015581CE815E81CF015581DC7
:10363000F815E81E0016001C0816081C1016401C81
:103640001816481C2016201C2816281C3016601C32
:10365000381628174016001D481628195016401D08
:103660005816281B6016201D6816281D7016601D30
:103670007816281F8016801C8816A01C9016801DA6
:103680009816A01DA016881CA816A81CB016881D88
:10369000B8166817C016901CC8166819D016901D69
:1036A000D816681BE016981CE816681DF016981DC1
:1036B000F816681F0017101C0817181C1017501C4C
:1036C0001817581C201768182817681C3017E81896
:1036D0003817A8174017101D4817A8195017501D64
:1036E0005817A81B6017681A6817A81D7017E81AE2
:1036F0007817A81F8017C01C8817E01C9017C01DE2
:103700009817E01DA017C81CA817E81CB017C81D03
:10371000B817E817C017D01CC817E819D017D01D64
:10372000D817E81BE017D81CE817E81DF017D81DBC
:10373000F817E81F18186018301848183818601C57
:103740005818301A6818301C7018181A7818301E5B
:103750008018001A8818081A9018001B9818601909
:10376000A018201AA818281AB018201BB818601D15
:10377000C018101AC818181AD018101BD818701AA8
:10378000E018301AE818701CF018581AF818701E53
:10379000081920191819601A2819081D30198819D4
:1037A0003819881D4819201B5819B01A6019081BB0
:1037B0006819B01C7019881B7819B01E8019401A3E
:1037C0008819481A9019401B9819601BA019601A93
:1037D000A819181DB019601BB819981DC019501AE6
:1037E000C819581AD019501BD819F01AE019181B0B
:1037F000E819F01CF019981BF819F01E381A701C03
:10380000581A301B681A301D701A181B781A301F8E
:10381000901AC01A981AC81AB01AE01AB81AE81AF8
:10382000C01A801BC81A881BD01AC01BD81A701B5C
:10383000E01AA01BE81A701DF01AE01BF81A701F9E
:10384000281B481D381BC81D481B601B581BB01B7C
:10385000681BB01D701BC81B781BB01F901BC01BC2
:10386000981BC81BA81B581DB01BE01BB81BD81DFC
:10387000D81BF01BE81BF01DF81BF01F081C201CB8
:10388000181C301C381C681C481C601C581C701C00
:10389000781C381E801C001E881C201E901C001FD7
:1038A000981C201FA01C081EA81C281EB01C081F46
:1038B000B81C281FC01C101EC81C301ED01C101F96
:1038C000D81C301FE01C181EE81C381EF01C181FE6
:1038D000F81C781E081D201D181D301D381DA81D40
:1038E000481D601D581D701D681D281F781DB81EBD
:1038F000801D401E881D601E901D401F981D601F6A
:10390000A01D481EA81D681EB01D481FB81D681FB9
:10391000C01D501EC81D701ED01D501FD81D701F09
:10392000E01D581EE81D781EF01D581FF81DF81EDA
:10393000081E201E181E301E481E601E581E701EB7
:10394000781E381F881EA01E901E801F981EA01F64
:10395000B01E881FB81EA81FC01E801FC81E881F4B
:10396000D01E901FD81EB01FE01EA01FE81EA81F6B
:10397000F01E981FF81E781F081F201F181F301FE9
:10398000481F601F581F701F781FB81F881FA01F77
:10399000901FC01F981FE01FB01FC81FB81FE81F4F
:1039A000C81FE01FD81FF01F00040000B83900082E
:1039B000982B0008080700000000803F000000006E
:1039C000C4FE7F3F890FC93B11FB7F3F900E493CEE
:1039D000E6F47F3FB6C9963C43EC7F3FB00AC93C52
:1039E00029E17F3FB949FB3C98D37F3F2CC3163D6B
:1039F0008FC37F3F07E02F3D0FB17F3F2FFB483D37
:103A0000189C7F3F6814623DAB847F3F742B7B3DE5
:103A1000C76A7F3F0A208A3D6D4E7F3F05A9963DCC
:103A20009D2F7F3F8C30A33D580E7F3F80B6AF3D2A
:103A30009DEA7E3FC33ABC3D6DC47E3F36BDC83D66
:103A4000C99B7E3FB93DD53DB0707E3F2EBCE13D68
:103A500023437E3F7638EE3D24137E3F73B2FA3D1A
:103A6000B1E07D3F0295033ECCAB7D3F86CF093E62
:103A700074747D3FB708103EAC3A7D3F8340163EDC
:103A800073FE7C3FDE761C3EC9BF7C3FB6AB223E58
:103A9000B07E7C3FFCDE283E283B7C3FA2102F3EC0
:103AA00031F57B3F9840353ECDAC7B3FCF6E3B3E02
:103AB000FC617B3F379B413EBE147B3FC2C5473E06
:103AC00016C57A3F60EE4D3E02737A3F0115543EB3
:103AD000841E7A3F97395A3E9DC7793F135C603EFA
:103AE0004E6E793F667C663E9812793F7F9A6C3EB7
:103AF0007BB4783F51B6723EF853783FCCCF783ED6
:103B000010F1773FE1E67E3EC58B773FC07D823E78
:103B10001724773FCE86853E07BA763F938E883E40
:103B2000974D763F07958B3EC6DE753F229A8E3EB7
:103B3000976D753FDD9D913E0BFA743F31A0943E29
:103B40002284743F17A1973EDD0B743F86A09A3EF6
:103B50003F91733F789E9D3E4714733FE59AA03E88
:103B6000F894723FC595A33E5213723F128FA63E42
:103B7000578F713FC486A93E0809713FD47CAC3E83
:103B80006680703F3A71AF3E73F56F3FEF63B23EB0
:103B900030686F3FEC54B53E9ED86E3F2A44B83E25
:103BA000BE466E3FA031BB3E93B26D3F4A1DBE3E46
:103BB0001D1C6D3F1E07C13E5E836C3F15EFC33E6B
:103BC00058E86B3F29D5C63E0C4B6B3F53B9C93EF5
:103BD0007BAB6A3F8B9BCC3EA7096A3FCA7BCF3E3B
:103BE0009165693F095AD23E3CBF683F4136D53E98
:103BF000A816683F6B10D83ED86B673F80E8DA3E66
:103C0000CCBE663F79BEDD3E880F663F4F92E03EF8
:103C10000B5E653FFA63E33E59AA643F7533E63EA7
:103C200073F4633FB700E93E5A3C633FBBCBEB3EC6
:103C30001082623F7994EE3E98C5613FEA5AF13EA8
:103C4000F206613F071FF43E2146603FCBE0F63E9F
:103C500027835F3F2DA0F93E05BE5E3F275DFC3EFA
:103C6000BEF65D3FB217FF3E532D5D3FE4E7003FD8
:103C7000C7615C3FB142023F1A945B3F3D9C033FEA
:103C800050C45A3F84F4043F6AF2593F824B063FC6
:103C90006A1E593F36A1073F5348583F9BF5083FDE
:103CA0002670573FAD480A3FE595563F6B9A0B3F4C
:103CB00093B9553FD0EA0C3F31DB543FDA390E3F20
:103CC000C3FA533F84870F3F4918533FCDD3103F6A
:103CD000C633523FB01E123F3D4D513F2A68133F3D
:103CE000AF64503F39B0143F1F7A4F3FD9F6153FAC
:103CF000908D4E3F073C173F029F4D3FC07F183FBE
:103D000079AE4C3F00C2193FF8BB4B3FC6021B3F88
:103D10007FC74A3F0C421C3F12D1493FD17F1D3F14
:103D2000B3D8483F12BC1E3F65DE473FCBF61F3F6E
:103D30002AE2463FF92F213F03E4453F9967223F9E
:103D4000F5E3443FA99D233F00E2433F25D2243FB2
:103D500029DE423F0A05263F70D8413F5636273FAD
:103D6000DAD0403F0566283F67C73F3F1594293F9B
:103D70001BBC3E3F82C02A3FF9AE3D3F4AEB2B3F82
:103D800003A03C3F69142D3F3B8F3B3FDE3B2E3F62
:103D9000A47C3A3FA5612F3F4268393FBB85303F45
:103DA0001652383F1DA8313F233A373FC9C8323F2A
:103DB0006C20363FBCE7333FF304353FF304353F17
:103DC000BCE7333F6C20363FC9C8323F233A373F08
:103DD0001DA8313F1652383FBB85303F4268393FFE
:103DE000A5612F3FA47C3A3FDE3B2E3F3B8F3B3FFC
:103DF00069142D3F03A03C3F4AEB2B3FF9AE3D3FFA
:103E000082C02A3F1BBC3E3F1594293F67C73F3FF6
:103E10000566283FDAD0403F5636273F70D8413FED
:103E20000A05263F29DE423F25D2243F00E2433FD8
:103E3000A99D233FF5E3443F9967223F03E4453FB3
:103E4000F92F213F2AE2463FCBF61F3F65DE473F71
:103E500012BC1E3FB3D8483FD17F1D3F12D1493F0E
:103E60000C421C3F7FC74A3FC6021B3FF8BB4B3F7B
:103E700000C2193F79AE4C3FC07F183F029F4D3FB3
:103E8000073C173F908D4E3FD9F6153F1F7A4F3FA5
:103E900039B0143FAF64503F2A68133F3D4D513F46
:103EA000B01E123FC633523FCDD3103F4918533F87
:103EB00084870F3FC3FA533FDA390E3F31DB543F5B
:103EC000D0EA0C3F93B9553F6B9A0B3FE595563FAF
:103ED000AD480A3F2670573F9BF5083F5348583F6F
:103EE00036A1073F6A1E593F824B063F6AF2593F8F
:103EF00084F4043F50C45A3F3D9C033F1A945B3FF7
:103F0000B142023FC7615C3FE4E7003F532D5D3F94
:103F1000B217FF3EBEF65D3F275DFC3E05BE5E3F2D
:103F20002DA0F93E27835F3FCBE0F63E2146603F60
:103F3000071FF43EF206613FEA5AF13E98C5613F21
:103F40007994EE3E1082623FBBCBEB3E5A3C633F1E
:103F5000B700E93E73F4633F7533E63E59AA643F08
:103F6000FA63E33E0B5E653F4F92E03E880F663F8B
:103F700079BEDD3ECCBE663F80E8DA3ED86B673F57
:103F80006B10D83EA816683F4136D53E3CBF683F0F
:103F9000095AD23E9165693FCA7BCF3EA7096A3F65
:103FA0008B9BCC3E7BAB6A3F53B9C93E0C4B6B3FFE
:103FB00029D5C63E58E86B3F15EFC33E5E836C3F84
:103FC0001E07C13E1D1C6D3F4A1DBE3E93B26D3F94
:103FD000A031BB3EBE466E3F2A44B83E9ED86E3FDF
:103FE000EC54B53E30686F3FEF63B23E73F56F3F00
:103FF0003A71AF3E6680703FD47CAC3E0809713F99
:10400000C486A93E578F713F128FA63E5213723F4E
:10401000C595A33EF894723FE59AA03E4714733FBE
:10402000789E9D3E3F91733F86A09A3EDD0B743F84
:1040300017A1973E2284743F31A0943E0BFA743F3F
:10404000DD9D913E976D753F229A8E3EC6DE753F8F
:1040500007958B3E974D763F938E883E07BA763F05
:10406000CE86853E1724773FC07D823EC58B773F45
:10407000E1E67E3E10F1773FCCCF783EF853783FB3
:1040800051B6723E7BB4783F7F9A6C3E9812793F6E
:10409000667C663E4E6E793F135C603E9DC7793FFD
:1040A00097395A3E841E7A3F0115543E02737A3F77
:1040B00060EE4D3E16C57A3FC2C5473EBE147B3FFB
:1040C000379B413EFC617B3FCF6E3B3ECDAC7B3F9F
:1040D0009840353E31F57B3FA2102F3E283B7C3F78
:1040E000FCDE283EB07E7C3FB6AB223EC9BF7C3FA3
:1040F000DE761C3E73FE7C3F8340163EAC3A7D3F2D
:10410000B708103E74747D3F86CF093ECCAB7D3F2F
:104110000295033EB1E07D3F73B2FA3D24137E3F2A
:104120007638EE3D23437E3F2EBCE13DB0707E3FAE
:10413000B93DD53DC99B7E3F36BDC83D6DC47E3F70
:10414000C33ABC3D9DEA7E3F80B6AF3D580E7F3FEF
:104150008C30A33D9D2F7F3F05A9963D6D4E7F3F3F
:104160000A208A3DC76A7F3F742B7B3DAB847F3F2B
:104170006814623D189C7F3F2FFB483D0FB17F3F85
:1041800007E02F3D8FC37F3F2CC3163D98D37F3F61
:10419000B949FB3C29E17F3FB00AC93C43EC7F3F72
:1041A000B6C9963CE6F47F3F900E493C11FB7F3F39
:1041B000890FC93BC4FE7F3F000000000000803F24
:1041C000890FC9BBC4FE7F3F900E49BC11FB7F3FE6
:1041D000B6C996BCE6F47F3FB00AC9BC43EC7F3F4A
:1041E000B949FBBC29E17F3F2CC316BD98D37F3F63
:1041F00007E02FBD8FC37F3F2FFB48BD0FB17F3F2F
:10420000681462BD189C7F3F742B7BBDAB847F3FDD
:104210000A208ABDC76A7F3F05A996BD6D4E7F3FC4
:104220008C30A3BD9D2F7F3F80B6AFBD580E7F3F22
:10423000C33ABCBD9DEA7E3F36BDC8BD6DC47E3F5E
:10424000B93DD5BDC99B7E3F2EBCE1BDB0707E3F60
:104250007638EEBD23437E3F73B2FABD24137E3F12
:10426000029503BEB1E07D3F86CF09BECCAB7D3F5A
:10427000B70810BE74747D3F834016BEAC3A7D3FD4
:10428000DE761CBE73FE7C3FB6AB22BEC9BF7C3F50
:10429000FCDE28BEB07E7C3FA2102FBE283B7C3FB8
:1042A000984035BE31F57B3FCF6E3BBECDAC7B3FFA
:1042B000379B41BEFC617B3FC2C547BEBE147B3FFE
:1042C00060EE4DBE16C57A3F011554BE02737A3FAB
:1042D00097395ABE841E7A3F135C60BE9DC7793FF2
:1042E000667C66BE4E6E793F7F9A6CBE9812793FAF
:1042F00051B672BE7BB4783FCCCF78BEF853783FCE
:10430000E1E67EBE10F1773FC07D82BEC58B773F70
:10431000CE8685BE1724773F938E88BE07BA763F38
:1043200007958BBE974D763F229A8EBEC6DE753FAF
:10433000DD9D91BE976D753F31A094BE0BFA743F21
:1043400017A197BE2284743F86A09ABEDD0B743FEE
:10435000789E9DBE3F91733FE59AA0BE4714733F80
:10436000C595A3BEF894723F128FA6BE5213723F3A
:10437000C486A9BE578F713FD47CACBE0809713F7B
:104380003A71AFBE6680703FEF63B2BE73F56F3FA8
:10439000EC54B5BE30686F3F2A44B8BE9ED86E3F1D
:1043A000A031BBBEBE466E3F4A1DBEBE93B26D3F3E
:1043B0001E07C1BE1D1C6D3F15EFC3BE5E836C3F63
:1043C00029D5C6BE58E86B3F53B9C9BE0C4B6B3FED
:1043D0008B9BCCBE7BAB6A3FCA7BCFBEA7096A3F33
:1043E000095AD2BE9165693F4136D5BE3CBF683F90
:1043F0006B10D8BEA816683F80E8DABED86B673F5E
:1044000079BEDDBECCBE663F4F92E0BE880F663FF0
:10441000FA63E3BE0B5E653F7533E6BE59AA643F9F
:10442000B700E9BE73F4633FBBCBEBBE5A3C633FBE
:104430007994EEBE1082623FEA5AF1BE98C5613FA0
:10444000071FF4BEF206613FCBE0F6BE2146603F97
:104450002DA0F9BE27835F3F275DFCBE05BE5E3FF2
:10446000B217FFBEBEF65D3FE4E700BF532D5D3FD0
:10447000B14202BFC7615C3F3D9C03BF1A945B3FE2
:1044800084F404BF50C45A3F824B06BF6AF2593FBE
:1044900036A107BF6A1E593F9BF508BF5348583FD6
:1044A000AD480ABF2670573F6B9A0BBFE595563F44
:1044B000D0EA0CBF93B9553FDA390EBF31DB543F18
:1044C00084870FBFC3FA533FCDD310BF4918533F62
:1044D000B01E12BFC633523F2A6813BF3D4D513F35
:1044E00039B014BFAF64503FD9F615BF1F7A4F3FA4
:1044F000073C17BF908D4E3FC07F18BF029F4D3FB6
:1045000000C219BF79AE4C3FC6021BBFF8BB4B3F80
:104510000C421CBF7FC74A3FD17F1DBF12D1493F0C
:1045200012BC1EBFB3D8483FCBF61FBF65DE473F66
:10453000F92F21BF2AE2463F996722BF03E4453F96
:10454000A99D23BFF5E3443F25D224BF00E2433FAA
:104550000A0526BF29DE423F563627BF70D8413FA5
:10456000056628BFDAD0403F159429BF67C73F3F93
:1045700082C02ABF1BBC3E3F4AEB2BBFF9AE3D3F7A
:1045800069142DBF03A03C3FDE3B2EBF3B8F3B3F5A
:10459000A5612FBFA47C3A3FBB8530BF4268393F3D
:1045A0001DA831BF1652383FC9C832BF233A373F22
:1045B000BCE733BF6C20363FF30435BFF304353F0F
:1045C0006C2036BFBCE7333F233A37BFC9C8323F00
:1045D000165238BF1DA8313F426839BFBB85303FF6
:1045E000A47C3ABFA5612F3F3B8F3BBFDE3B2E3FF4
:1045F00003A03CBF69142D3FF9AE3DBF4AEB2B3FF2
:104600001BBC3EBF82C02A3F67C73FBF1594293FEE
:10461000DAD040BF0566283F70D841BF5636273FE5
:1046200029DE42BF0A05263F00E243BF25D2243FD0
:10463000F5E344BFA99D233F03E445BF9967223FAB
:104640002AE246BFF92F213F65DE47BFCBF61F3F69
:10465000B3D848BF12BC1E3F12D149BFD17F1D3F06
:104660007FC74ABF0C421C3FF8BB4BBFC6021B3F73
:1046700079AE4CBF00C2193F029F4DBFC07F183FAB
:10468000908D4EBF073C173F1F7A4FBFD9F6153F9D
:10469000AF6450BF39B0143F3D4D51BF2A68133F3E
:1046A000C63352BFB01E123F491853BFCDD3103F7F
:1046B000C3FA53BF84870F3F31DB54BFDA390E3F53
:1046C00093B955BFD0EA0C3FE59556BF6B9A0B3FA7
:1046D000267057BFAD480A3F534858BF9BF5083F67
:1046E0006A1E59BF36A1073F6AF259BF824B063F87
:1046F00050C45ABF84F4043F1A945BBF3D9C033FEF
:10470000C7615CBFB142023F532D5DBFE4E7003F8C
:10471000BEF65DBFB217FF3E05BE5EBF275DFC3E25
:1047200027835FBF2DA0F93E214660BFCBE0F63E58
:10473000F20661BF071FF43E98C561BFEA5AF13E19
:10474000108262BF7994EE3E5A3C63BFBBCBEB3E16
:1047500073F463BFB700E93E59AA64BF7533E63E00
:104760000B5E65BFFA63E33E880F66BF4F92E03E83
:10477000CCBE66BF79BEDD3ED86B67BF80E8DA3E4F
:10478000A81668BF6B10D83E3CBF68BF4136D53E07
:10479000916569BF095AD23EA7096ABFCA7BCF3E5D
:1047A0007BAB6ABF8B9BCC3E0C4B6BBF53B9C93EF6
:1047B00058E86BBF29D5C63E5E836CBF15EFC33E7C
:1047C0001D1C6DBF1E07C13E93B26DBF4A1DBE3E8C
:1047D000BE466EBFA031BB3E9ED86EBF2A44B83ED7
:1047E00030686FBFEC54B53E73F56FBFEF63B23EF8
:1047F000668070BF3A71AF3E080971BFD47CAC3E91
:10480000578F71BFC486A93E521372BF128FA63E46
:10481000F89472BFC595A33E471473BFE59AA03EB6
:104820003F9173BF789E9D3EDD0B74BF86A09A3E7C
:10483000228474BF17A1973E0BFA74BF31A0943E37
:10484000976D75BFDD9D913EC6DE75BF229A8E3E87
:10485000974D76BF07958B3E07BA76BF938E883EFD
:10486000172477BFCE86853EC58B77BFC07D823E3D
:1048700010F177BFE1E67E3EF85378BFCCCF783EAB
:104880007BB478BF51B6723E981279BF7F9A6C3E66
:104890004E6E79BF667C663E9DC779BF135C603EF5
:1048A000841E7ABF97395A3E02737ABF0115543E6F
:1048B00016C57ABF60EE4D3EBE147BBFC2C5473EF3
:1048C000FC617BBF379B413ECDAC7BBFCF6E3B3E97
:1048D00031F57BBF9840353E283B7CBFA2102F3E70
:1048E000B07E7CBFFCDE283EC9BF7CBFB6AB223E9B
:1048F00073FE7CBFDE761C3EAC3A7DBF8340163E25
:1049000074747DBFB708103ECCAB7DBF86CF093E27
:10491000B1E07DBF0295033E24137EBF73B2FA3D22
:1049200023437EBF7638EE3DB0707EBF2EBCE13DA6
:10493000C99B7EBFB93DD53D6DC47EBF36BDC83D68
:104940009DEA7EBFC33ABC3D580E7FBF80B6AF3DE7
:104950009D2F7FBF8C30A33D6D4E7FBF05A9963D37
:10496000C76A7FBF0A208A3DAB847FBF742B7B3D23
:10497000189C7FBF6814623D0FB17FBF2FFB483D7D
:104980008FC37FBF07E02F3D98D37FBF2CC3163D59
:1049900029E17FBFB949FB3C43EC7FBFB00AC93C6A
:1049A000E6F47FBFB6C9963C11FB7FBF900E493C31
:1049B000C4FE7FBF890FC93B000080BF000000001C
:1049C000C4FE7FBF890FC9BB11FB7FBF900E49BCDE
:1049D000E6F47FBFB6C996BC43EC7FBFB00AC9BC42
:1049E00029E17FBFB949FBBC98D37FBF2CC316BD5B
:1049F0008FC37FBF07E02FBD0FB17FBF2FFB48BD27
:104A0000189C7FBF681462BDAB847FBF742B7BBDD5
:104A1000C76A7FBF0A208ABD6D4E7FBF05A996BDBC
:104A20009D2F7FBF8C30A3BD580E7FBF80B6AFBD1A
:104A30009DEA7EBFC33ABCBD6DC47EBF36BDC8BD56
:104A4000C99B7EBFB93DD5BDB0707EBF2EBCE1BD58
:104A500023437EBF7638EEBD24137EBF73B2FABD0A
:104A6000B1E07DBF029503BECCAB7DBF86CF09BE52
:104A700074747DBFB70810BEAC3A7DBF834016BECC
:104A800073FE7CBFDE761CBEC9BF7CBFB6AB22BE48
:104A9000B07E7CBFFCDE28BE283B7CBFA2102FBEB0
:104AA00031F57BBF984035BECDAC7BBFCF6E3BBEF2
:104AB000FC617BBF379B41BEBE147BBFC2C547BEF6
:104AC00016C57ABF60EE4DBE02737ABF011554BEA3
:104AD000841E7ABF97395ABE9DC779BF135C60BEEA
:104AE0004E6E79BF667C66BE981279BF7F9A6CBEA7
:104AF0007BB478BF51B672BEF85378BFCCCF78BEC6
:104B000010F177BFE1E67EBEC58B77BFC07D82BE68
:104B1000172477BFCE8685BE07BA76BF938E88BE30
:104B2000974D76BF07958BBEC6DE75BF229A8EBEA7
:104B3000976D75BFDD9D91BE0BFA74BF31A094BE19
:104B4000228474BF17A197BEDD0B74BF86A09ABEE6
:104B50003F9173BF789E9DBE471473BFE59AA0BE78
:104B6000F89472BFC595A3BE521372BF128FA6BE32
:104B7000578F71BFC486A9BE080971BFD47CACBE73
:104B8000668070BF3A71AFBE73F56FBFEF63B2BEA0
:104B900030686FBFEC54B5BE9ED86EBF2A44B8BE15
:104BA000BE466EBFA031BBBE93B26DBF4A1DBEBE36
:104BB0001D1C6DBF1E07C1BE5E836CBF15EFC3BE5B
:104BC00058E86BBF29D5C6BE0C4B6BBF53B9C9BEE5
:104BD0007BAB6ABF8B9BCCBEA7096ABFCA7BCFBE2B
:104BE000916569BF095AD2BE3CBF68BF4136D5BE88
:104BF000A81668BF6B10D8BED86B67BF80E8DABE56
:104C0000CCBE66BF79BEDDBE880F66BF4F92E0BEE8
:104C10000B5E65BFFA63E3BE59AA64BF7533E6BE97
:104C200073F463BFB700E9BE5A3C63BFBBCBEBBEB6
:104C3000108262BF7994EEBE98C561BFEA5AF1BE98
:104C4000F20661BF071FF4BE214660BFCBE0F6BE8F
:104C500027835FBF2DA0F9BE05BE5EBF275DFCBEEA
:104C6000BEF65DBFB217FFBE532D5DBFE4E700BFC8
:104C7000C7615CBFB14202BF1A945BBF3D9C03BFDA
:104C800050C45ABF84F404BF6AF259BF824B06BFB6
:104C90006A1E59BF36A107BF534858BF9BF508BFCE
:104CA000267057BFAD480ABFE59556BF6B9A0BBF3C
:104CB00093B955BFD0EA0CBF31DB54BFDA390EBF10
:104CC000C3FA53BF84870FBF491853BFCDD310BF5A
:104CD000C63352BFB01E12BF3D4D51BF2A6813BF2D
:104CE000AF6450BF39B014BF1F7A4FBFD9F615BF9C
:104CF000908D4EBF073C17BF029F4DBFC07F18BFAE
:104D000079AE4CBF00C219BFF8BB4BBFC6021BBF78
:104D10007FC74ABF0C421CBF12D149BFD17F1DBF04
:104D2000B3D848BF12BC1EBF65DE47BFCBF61FBF5E
:104D30002AE246BFF92F21BF03E445BF996722BF8E
:104D4000F5E344BFA99D23BF00E243BF25D224BFA2
:104D500029DE42BF0A0526BF70D841BF563627BF9D
:104D6000DAD040BF056628BF67C73FBF159429BF8B
:104D70001BBC3EBF82C02ABFF9AE3DBF4AEB2BBF72
:104D800003A03CBF69142DBF3B8F3BBFDE3B2EBF52
:104D9000A47C3ABFA5612FBF426839BFBB8530BF35
:104DA000165238BF1DA831BF233A37BFC9C832BF1A
:104DB0006C2036BFBCE733BFF30435BFF30435BF07
:104DC000BCE733BF6C2036BFC9C832BF233A37BFF8
:104DD0001DA831BF165238BFBB8530BF426839BFEE
:104DE000A5612FBFA47C3ABFDE3B2EBF3B8F3BBFEC
:104DF00069142DBF03A03CBF4AEB2BBFF9AE3DBFEA
:104E000082C02ABF1BBC3EBF159429BF67C73FBFE6
:104E1000056628BFDAD040BF563627BF70D841BFDD
:104E20000A0526BF29DE42BF25D224BF00E243BFC8
:104E3000A99D23BFF5E344BF996722BF03E445BFA3
:104E4000F92F21BF2AE246BFCBF61FBF65DE47BF61
:104E500012BC1EBFB3D848BFD17F1DBF12D149BFFE
:104E60000C421CBF7FC74ABFC6021BBFF8BB4BBF6B
:104E700000C219BF79AE4CBFC07F18BF029F4DBFA3
:104E8000073C17BF908D4EBFD9F615BF1F7A4FBF95
:104E900039B014BFAF6450BF2A6813BF3D4D51BF36
:104EA000B01E12BFC63352BFCDD310BF491853BF77
:104EB00084870FBFC3FA53BFDA390EBF31DB54BF4B
:104EC000D0EA0CBF93B955BF6B9A0BBFE59556BF9F
:104ED000AD480ABF267057BF9BF508BF534858BF5F
:104EE00036A107BF6A1E59BF824B06BF6AF259BF7F
:104EF00084F404BF50C45ABF3D9C03BF1A945BBFE7
:104F0000B14202BFC7615CBFE4E700BF532D5DBF84
:104F1000B217FFBEBEF65DBF275DFCBE05BE5EBF1D
:104F20002DA0F9BE27835FBFCBE0F6BE214660BF50
:104F3000071FF4BEF20661BFEA5AF1BE98C561BF11
:104F40007994EEBE108262BFBBCBEBBE5A3C63BF0E
:104F5000B700E9BE73F463BF7533E6BE59AA64BFF8
:104F6000FA63E3BE0B5E65BF4F92E0BE880F66BF7B
:104F700079BEDDBECCBE66BF80E8DABED86B67BF47
:104F80006B10D8BEA81668BF4136D5BE3CBF68BFFF
:104F9000095AD2BE916569BFCA7BCFBEA7096ABF55
:104FA0008B9BCCBE7BAB6ABF53B9C9BE0C4B6BBFEE
:104FB00029D5C6BE58E86BBF15EFC3BE5E836CBF74
:104FC0001E07C1BE1D1C6DBF4A1DBEBE93B26DBF84
:104FD000A031BBBEBE466EBF2A44B8BE9ED86EBFCF
:104FE000EC54B5BE30686FBFEF63B2BE73F56FBFF0
:104FF0003A71AFBE668070BFD47CACBE080971BF89
:10500000C486A9BE578F71BF128FA6BE521372BF3E
:10501000C595A3BEF89472BFE59AA0BE471473BFAE
:10502000789E9DBE3F9173BF86A09ABEDD0B74BF74
:1050300017A197BE228474BF31A094BE0BFA74BF2F
:10504000DD9D91BE976D75BF229A8EBEC6DE75BF7F
:1050500007958BBE974D76BF938E88BE07BA76BFF5
:10506000CE8685BE172477BFC07D82BEC58B77BF35
:10507000E1E67EBE10F177BFCCCF78BEF85378BFA3
:1050800051B672BE7BB478BF7F9A6CBE981279BF5E
:10509000667C66BE4E6E79BF135C60BE9DC779BFED
:1050A00097395ABE841E7ABF011554BE02737ABF67
:1050B00060EE4DBE16C57ABFC2C547BEBE147BBFEB
:1050C000379B41BEFC617BBFCF6E3BBECDAC7BBF8F
:1050D000984035BE31F57BBFA2102FBE283B7CBF68
:1050E000FCDE28BEB07E7CBFB6AB22BEC9BF7CBF93
:1050F000DE761CBE73FE7CBF834016BEAC3A7DBF1D
:10510000B70810BE74747DBF86CF09BECCAB7DBF1F
:10511000029503BEB1E07DBF73B2FABD24137EBF1A
:105120007638EEBD23437EBF2EBCE1BDB0707EBF9E
:10513000B93DD5BDC99B7EBF36BDC8BD6DC47EBF60
:10514000C33ABCBD9DEA7EBF80B6AFBD580E7FBFDF
:105150008C30A3BD9D2F7FBF05A996BD6D4E7FBF2F
:105160000A208ABDC76A7FBF742B7BBDAB847FBF1B
:10517000681462BD189C7FBF2FFB48BD0FB17FBF75
:1051800007E02FBD8FC37FBF2CC316BD98D37FBF51
:10519000B949FBBC29E17FBFB00AC9BC43EC7FBF62
:1051A000B6C996BCE6F47FBF900E49BC11FB7FBF29
:1051B000890FC9BBC4FE7FBF00000080000080BF14
:1051C000890FC93BC4FE7FBF900E493C11FB7FBFD6
:1051D000B6C9963CE6F47FBFB00AC93C43EC7FBF3A
:1051E000B949FB3C29E17FBF2CC3163D98D37FBF53
:1051F00007E02F3D8FC37FBF2FFB483D0FB17FBF1F
:105200006814623D189C7FBF742B7B3DAB847FBFCD
:105210000A208A3DC76A7FBF05A9963D6D4E7FBFB4
:105220008C30A33D9D2F7FBF80B6AF3D580E7FBF12
:10523000C33ABC3D9DEA7EBF36BDC83D6DC47EBF4E
:10524000B93DD53DC99B7EBF2EBCE13DB0707EBF50
:105250007638EE3D23437EBF73B2FA3D24137EBF02
:105260000295033EB1E07DBF86CF093ECCAB7DBF4A
:10527000B708103E74747DBF8340163EAC3A7DBFC4
:10528000DE761C3E73FE7CBFB6AB223EC9BF7CBF40
:10529000FCDE283EB07E7CBFA2102F3E283B7CBFA8
:1052A0009840353E31F57BBFCF6E3B3ECDAC7BBFEA
:1052B000379B413EFC617BBFC2C5473EBE147BBFEE
:1052C00060EE4D3E16C57ABF0115543E02737ABF9B
:1052D00097395A3E841E7ABF135C603E9DC779BFE2
:1052E000667C663E4E6E79BF7F9A6C3E981279BF9F
:1052F00051B6723E7BB478BFCCCF783EF85378BFBE
:10530000E1E67E3E10F177BFC07D823EC58B77BF60
:10531000CE86853E172477BF938E883E07BA76BF28
:1053200007958B3E974D76BF229A8E3EC6DE75BF9F
:10533000DD9D913E976D75BF31A0943E0BFA74BF11
:1053400017A1973E228474BF86A09A3EDD0B74BFDE
:10535000789E9D3E3F9173BFE59AA03E471473BF70
:10536000C595A33EF89472BF128FA63E521372BF2A
:10537000C486A93E578F71BFD47CAC3E080971BF6B
:105380003A71AF3E668070BFEF63B23E73F56FBF98
:10539000EC54B53E30686FBF2A44B83E9ED86EBF0D
:1053A000A031BB3EBE466EBF4A1DBE3E93B26DBF2E
:1053B0001E07C13E1D1C6DBF15EFC33E5E836CBF53
:1053C00029D5C63E58E86BBF53B9C93E0C4B6BBFDD
:1053D0008B9BCC3E7BAB6ABFCA7BCF3EA7096ABF23
:1053E000095AD23E916569BF4136D53E3CBF68BF80
:1053F0006B10D83EA81668BF80E8DA3ED86B67BF4E
:1054000079BEDD3ECCBE66BF4F92E03E880F66BFE0
:10541000FA63E33E0B5E65BF7533E63E59AA64BF8F
:10542000B700E93E73F463BFBBCBEB3E5A3C63BFAE
:105430007994EE3E108262BFEA5AF13E98C561BF90
:10544000071FF43EF20661BFCBE0F63E214660BF87
:105450002DA0F93E27835FBF275DFC3E05BE5EBFE2
:10546000B217FF3EBEF65DBFE4E7003F532D5DBFC0
:10547000B142023FC7615CBF3D9C033F1A945BBFD2
:1054800084F4043F50C45ABF824B063F6AF259BFAE
:1054900036A1073F6A1E59BF9BF5083F534858BFC6
:1054A000AD480A3F267057BF6B9A0B3FE59556BF34
:1054B000D0EA0C3F93B955BFDA390E3F31DB54BF08
:1054C00084870F3FC3FA53BFCDD3103F491853BF52
:1054D000B01E123FC63352BF2A68133F3D4D51BF25
:1054E00039B0143FAF6450BFD9F6153F1F7A4FBF94
:1054F000073C173F908D4EBFC07F183F029F4DBFA6
:1055000000C2193F79AE4CBFC6021B3FF8BB4BBF70
:105510000C421C3F7FC74ABFD17F1D3F12D149BFFC
:1055200012BC1E3FB3D848BFCBF61F3F65DE47BF56
:10553000F92F213F2AE246BF9967223F03E445BF86
:10554000A99D233FF5E344BF25D2243F00E243BF9A
:105550000A05263F29DE42BF5636273F70D841BF95
:105560000566283FDAD040BF1594293F67C73FBF83
:1055700082C02A3F1BBC3EBF4AEB2B3FF9AE3DBF6A
:1055800069142D3F03A03CBFDE3B2E3F3B8F3BBF4A
:10559000A5612F3FA47C3ABFBB85303F426839BF2D
:1055A0001DA8313F165238BFC9C8323F233A37BF12
:1055B000BCE7333F6C2036BFF304353FF30435BFFF
:1055C0006C20363FBCE733BF233A373FC9C832BFF0
:1055D0001652383F1DA831BF4268393FBB8530BFE6
:1055E000A47C3A3FA5612FBF3B8F3B3FDE3B2EBFE4
:1055F00003A03C3F69142DBFF9AE3D3F4AEB2BBFE2
:105600001BBC3E3F82C02ABF67C73F3F159429BFDE
:10561000DAD0403F056628BF70D8413F563627BFD5
:1056200029DE423F0A0526BF00E2433F25D224BFC0
:10563000F5E3443FA99D23BF03E4453F996722BF9B
:105640002AE2463FF92F21BF65DE473FCBF61FBF59
:10565000B3D8483F12BC1EBF12D1493FD17F1DBFF6
:105660007FC74A3F0C421CBFF8BB4B3FC6021BBF63
:1056700079AE4C3F00C219BF029F4D3FC07F18BF9B
:10568000908D4E3F073C17BF1F7A4F3FD9F615BF8D
:10569000AF64503F39B014BF3D4D513F2A6813BF2E
:1056A000C633523FB01E12BF4918533FCDD310BF6F
:1056B000C3FA533F84870FBF31DB543FDA390EBF43
:1056C00093B9553FD0EA0CBFE595563F6B9A0BBF97
:1056D0002670573FAD480ABF5348583F9BF508BF57
:1056E0006A1E593F36A107BF6AF2593F824B06BF77
:1056F00050C45A3F84F404BF1A945B3F3D9C03BFDF
:10570000C7615C3FB14202BF532D5D3FE4E700BF7C
:10571000BEF65D3FB217FFBE05BE5E3F275DFCBE15
:1057200027835F3F2DA0F9BE2146603FCBE0F6BE48
:10573000F206613F071FF4BE98C5613FEA5AF1BE09
:105740001082623F7994EEBE5A3C633FBBCBEBBE06
:1057500073F4633FB700E9BE59AA643F7533E6BEF0
:105760000B5E653FFA63E3BE880F663F4F92E0BE73
:10577000CCBE663F79BEDDBED86B673F80E8DABE3F
:10578000A816683F6B10D8BE3CBF683F4136D5BEF7
:105790009165693F095AD2BEA7096A3FCA7BCFBE4D
:1057A0007BAB6A3F8B9BCCBE0C4B6B3F53B9C9BEE6
:1057B00058E86B3F29D5C6BE5E836C3F15EFC3BE6C
:1057C0001D1C6D3F1E07C1BE93B26D3F4A1DBEBE7C
:1057D000BE466E3FA031BBBE9ED86E3F2A44B8BEC7
:1057E00030686F3FEC54B5BE73F56F3FEF63B2BEE8
:1057F0006680703F3A71AFBE0809713FD47CACBE81
:10580000578F713FC486A9BE5213723F128FA6BE36
:10581000F894723FC595A3BE4714733FE59AA0BEA6
:105820003F91733F789E9DBEDD0B743F86A09ABE6C
:105830002284743F17A197BE0BFA743F31A094BE27
:10584000976D753FDD9D91BEC6DE753F229A8EBE77
:10585000974D763F07958BBE07BA763F938E88BEED
:105860001724773FCE8685BEC58B773FC07D82BE2D
:1058700010F1773FE1E67EBEF853783FCCCF78BE9B
:105880007BB4783F51B672BE9812793F7F9A6CBE56
:105890004E6E793F667C66BE9DC7793F135C60BEE5
:1058A000841E7A3F97395ABE02737A3F011554BE5F
:1058B00016C57A3F60EE4DBEBE147B3FC2C547BEE3
:1058C000FC617B3F379B41BECDAC7B3FCF6E3BBE87
:1058D00031F57B3F984035BE283B7C3FA2102FBE60
:1058E000B07E7C3FFCDE28BEC9BF7C3FB6AB22BE8B
:1058F00073FE7C3FDE761CBEAC3A7D3F834016BE15
:1059000074747D3FB70810BECCAB7D3F86CF09BE17
:10591000B1E07D3F029503BE24137E3F73B2FABD12
:1059200023437E3F7638EEBDB0707E3F2EBCE1BD96
:10593000C99B7E3FB93DD5BD6DC47E3F36BDC8BD58
:105940009DEA7E3FC33ABCBD580E7F3F80B6AFBDD7
:105950009D2F7F3F8C30A3BD6D4E7F3F05A996BD27
:10596000C76A7F3F0A208ABDAB847F3F742B7BBD13
:10597000189C7F3F681462BD0FB17F3F2FFB48BD6D
:105980008FC37F3F07E02FBD98D37F3F2CC316BD49
:1059900029E17F3FB949FBBC43EC7F3FB00AC9BC5A
:1059A000E6F47F3FB6C996BC11FB7F3F900E49BC21
:1059B000C4FE7F3F890FC9BBD859000800000020F2
:1059C00038000000BA2A0008105A000838000020E9
:1059D000A8340000CA2A00080000000000000000EF
:1059E00000000000000000000000000000000000B7
:1059F00000000000000000000000000000000000A7
:105A000010000000010000000024F400000000006D
:04000005080001F9F5
:00000001FF
