:0C800000F8B500BFF8BC08BC9E467047F5
:1080400008B5042027F0B8FE024B034A0349036039
:1080500027F0E2FFEC720400C1FA0200C8720400CB
:1080600008B5042027F0A8FE024B034A0349036029
:1080700027F0D2FF28730400F9FA02000873040005
:1080800010B50446082027F097FE2146044629F043
:108090001DFB054A0549204627F0BEFF204627F074
:1080A000A3FE00F087FB00BF5510030074760400A8
:1080B00010B50446082027F07FFE2146044629F02B
:1080C00045FB054A0549204627F0A6FF204627F034
:1080D0008BFE00F06FFB00BFDD1003008076040014
:1080E00010B50446082027F067FE2146044629F013
:1080F00041FB054A0549204627F08EFF204627F020
:1081000073FE00F057FB00BF1510030098760400C3
:1081100008B5042027F050FE024B034A03490360D0
:1081200027F07AFF28730400F9FA020008730400AC
:1081300008B5042027F040FE024B034A03490360C0
:1081400027F06AFFCC7E0400591D03009C7E0400CA
:108150002DE9F04F85B0024627F056FE38B152E9BE
:108160000674D2E90C85D2F828A0002605E0044662
:1081700007460126054680468246104627F072FED5
:108180000EB100F041FF384600F03AFF27F06AFEDA
:108190000EB100F02BFF00F0EBFB0768DFF888B0B2
:1081A00097F82730012B0CBF3B6807F17803029347
:1081B00028F00303019320374FF00009CA4520DD62
:1081C000D5F80080B8F1000F00D0A84402AB00221F
:1081D0004146384600F0F4FA08B127F037FFD8F8E6
:1081E0000030039003AA40465946D3F8108001237B
:1081F000C047019B002818BF064609F101091D442C
:10820000DCE746B1042027F0D7FD084B084A0649B1
:10821000036027F001FF204600F0D4FE27F060FE47
:1082200027F05EFE00F0C6FA58430400DC43040069
:108230004D89000030B5054683B0182027F0BCFDFD
:10824000044629F0E5FA0123CDE9003002AB13E939
:10825000060020462B4629F0A9FB0D4B2360204643
:1082600028F0D6FE014604F1100029F0EBFD094A82
:108270000949204627F0D0FE084B2360204629F00C
:10828000FBFCFFE7204627F0AFFD00F093FA00BFAC
:10829000547C04000D190300407C0400207D040080
:1082A00008B529F047FE08B5FFF7FAFF00B54FF013
:1082B000804085B04FF07E5C074A084B69460190CC
:1082C0000748CDF800C00292039300F02BFA00207B
:1082D00005B05DF804FB00BF0000404051776F40DF
:1082E00018D7050010B5054C204601F04BF9204683
:1082F000034A0449BDE8104000F054BA6CD40500AC
:10830000A0C90500A595000010B5054C204601F058
:1083100039F92046034A0449BDE8104000F042BA4A
:1083200070D40500A0C90500A5950000184B1A6877
:10833000D1075CBF01221A60164B1A68D2075CBFD6
:1083400001221A60144B1A68D0075CBF01221A6020
:10835000124B1A68D1075CBF01221A60104B1A68D1
:10836000D2075CBF01221A600E4B1A68D0075CBFAF
:1083700001221A600C4B1A68D1075CBF01221A60F7
:108380000A4B1A68D2075CBF01221A60704700BF0F
:1083900088E9050084E9050080E905007CE905001D
:1083A00078E9050074E9050070E905006CE905004D
:1083B000184B1A68D1075CBF01221A60164B1A6865
:1083C000D2075CBF01221A60144B1A68D0075CBF49
:1083D00001221A60124B1A68D1075CBF01221A6091
:1083E000104B1A68D2075CBF01221A600E4B1A6844
:1083F000D0075CBF01221A600C4B1A68D1075CBF22
:1084000001221A600A4B1A68D2075CBF01221A6067
:10841000704700BFC8E90500C4E90500C0E90500D0
:10842000BCE90500B8E90500B4E90500B0E90500BC
:10843000ACE90500244B1A68D0075CBF01221A6022
:10844000224B1A68D1075CBF01221A60204B1A68C0
:10845000D2075CBF01221A601E4B1A68D0075CBFAE
:1084600001221A601C4B1A68D1075CBF01221A60F6
:108470001A4B1A68D2075CBF01221A60184B1A689F
:10848000D0075CBF01221A60164B1A68D1075CBF87
:1084900001221A60144B1A68D2075CBF01221A60CD
:1084A000124B1A68D0075CBF01221A60104B1A6881
:1084B000D1075CBF01221A600E4B1A68D2075CBF5D
:1084C00001221A60704700BF1CEA050018EA050087
:1084D00014EA050010EA05000CEA050008EA0500A8
:1084E00004EA050000EA0500FCE90500F8E90500DA
:1084F000F4E90500F0E90500244B1A68D0075CBFD9
:1085000001221A60224B1A68D1075CBF01221A604F
:10851000204B1A68D2075CBF01221A601E4B1A68F2
:10852000D0075CBF01221A601C4B1A68D1075CBFE0
:1085300001221A601A4B1A68D2075CBF01221A6026
:10854000184B1A68D0075CBF01221A60164B1A68D4
:10855000D1075CBF01221A60144B1A68D2075CBFB6
:1085600001221A60124B1A68D0075CBF01221A6000
:10857000104B1A68D1075CBF01221A600E4B1A68B3
:10858000D2075CBF01221A60704700BF7CEA050079
:1085900078EA050074EA050070EA05006CEA050057
:1085A00068EA050064EA050060EA05005CEA050087
:1085B00058EA050054EA050050EA050038B5084CB1
:1085C0004FF41E652846E5602AF0D4FDA06020B176
:1085D0000023C0E90053606038BDE060606038BDD2
:1085E000B0EA050010B5064C06490748224600F0DF
:1085F000D9F8224605490648BDE8104000F0D2B837
:10860000A0C905005D1C030034CA0500591C030005
:1086100030CA0500024B13B1024829F093BC7047E1
:1086200000000000612403000348044B834202D091
:10863000034B03B11847704750D4050050D40500D0
:1086400000000000054806490B1AD90F01EBA301F1
:10865000491002D0034B03B11847704750D40500AE
:1086600050D405000000000010B5064C237843B933
:10867000FFF7DAFF044B13B10448AFF30080012386
:10868000237010BD50D405000000000070C9040024
:1086900008B5044B1BB104490448AFF30080BDE8A2
:1086A0000840CFE70000000054D4050070C9040062
:1086B000A3F5803A704700BF154B002B08BF114B44
:1086C0009D46FFF7F5FF00218B460F461148124AE1
:1086D000121A2BF00FFA0C4B002B00D098470B4BC3
:1086E000002B00D098470020002104000D000B480B
:1086F00029F028FC2AF094FB20002900FFF7D6FD82
:1087000029F05AFC000008000000000000000000F2
:108710000000000050D4050034EB05006124030084
:108720000846704770B50C460546032219491CF0EF
:1087300025FC20683AF03CF80B46024628461CF01F
:1087400053FD0522064614491CF018FC60683AF0F7
:108750002FF80B46024630461CF046FD0522064621
:108760000E491CF00BFCA0683AF022F80B460246BA
:1087700030461CF039FD0C22064609491CF0FEFB70
:10878000E0683AF015F802460B4630461CF02CFD26
:10879000284670BD00430400044304000C43040059
:1087A0001443040003460846194629F0F9BB00BFEC
:1087B00027F038BA1EB400F08FF81EBC3BF056FB11
:1087C000F0B50278472A83B00C461D4619D0002325
:1087D000264E0193336830469B68984778B1019BD9
:1087E0001B68019302272368314620461E6901AAAF
:1087F0000123B04718BB0746384603B0F0BD012738
:10880000F1E743784E2BE2D18378552BDFD1C37843
:10881000432BDCD10379462B1BD00379432BD6D1D4
:1088200043792B2BD3D183792B2BD0D1C379012B37
:10883000CDD809D050F8206C58300190CAE7019B80
:108840002B60384603B0F0BD50F8200C50F8786C1F
:10885000F3E743794F2BE0D18379522BDDD1C379F4
:10886000002BDAD1024E0193B4E700BF504304005D
:108870004843040010B5044600F07EF8224612F882
:108880002039472B04D0836823BB8260012010BDB0
:1088900063784E2BF7D1A378552BF4D1E378432B93
:1088A000F1D12379432BEED163792B2BEBD1A37933
:1088B0002B2BE8D1E379012BE5D854F8043C0133A4
:1088C000012B44F8043CE1D1836844F8083C826001
:1088D000012010BD00F08AFB08B500F04DF8836858
:1088E00083B393F82020472A04D00022826003F14A
:1088F000200008BD93F821204E2AF6D193F82220BB
:10890000552AF2D193F82320432AEED193F824205C
:10891000432AEAD193F825202B2AE6D193F8262082
:108920002B2AE2D193F82720012ADED8DA69013A0E
:10893000DA61002ADBD19969816000229A6103F132
:10894000200008BD00F052FB704700BF704700BF19
:108950000048704724430400004870473443040033
:1089600010B504210446FFF723FF204610BD00BFC9
:108970000048704774D405000048704774D405005F
:10898000502870B51DD0844600F00F000C2855D833
:10899000DFE800F0074426071E545454542A2207E7
:1089A0001E00104650F8046B4EB10CF07004102CF1
:1089B00008BF11460E441CF0800F18BF36681E60B9
:1089C00070BD033222F0030050F8046B1E6070BDCE
:1089D000104650F8086BE7E7104630F9026BE3E702
:1089E000104630F8026BDFE700261046344610F8D8
:1089F000015B05F07F0E0EFA04FE15F0800F46EACB
:108A00000E0604F10704F2D11F2CCDD86D06CBD58C
:108A10004FF0FF3505FA04F42643C6E7002610465A
:108A2000344610F8015B05F07F0E0EFA04FE2D06A9
:108A300046EA0E0604F10704F3D4B5E729F07AFA02
:108A4000FF2808B5034619D003F07002302A084603
:108A500016D005D8202A09D1BDE80840FFF723BC6D
:108A6000402A09D1BDE808403BF0E0BB02D813F032
:108A7000600F03D029F05EFA502AFBD1002008BD18
:108A8000BDE80840FFF70CBCF8B50C461546064695
:108A900008B13BF0CBFB286014F8017BFF2F29D1F4
:108AA0006860204610F8013B2B75FF2B33D0102354
:108AB00000242B75224610F8011B01F07F03934020
:108AC000090644EA030402F10702F4D40444EC600A
:108AD00010F8013B6B750024224610F8011B01F0D1
:108AE0007F0393401C430B0602F10702F5D40444B4
:108AF0002C61F8BD31463846FFF7A2FF22460146F9
:108B00002B1D3846FFF73CFF0446204610F8013B7A
:108B10002B75FF2BCBD10023EB60D9E72DE9F04F6C
:108B200000F0030493B00023012C089388461746F5
:108B300013D0022C08D1394640463BF061FB40B9C6
:108B4000082013B0BDE8F08F002C00F0948029F0CD
:108B5000F1F9092013B0BDE8F08F0DF1300A10F0E3
:108B60000804CDF800A000F09D8044F002020292BB
:108B70000C910C22194638463AF0E8FD38463BF095
:108B80005BFB83460028D6D0524601463846FFF7A5
:108B90007BFF394605469DF84400FFF751FF0DF174
:108BA0002C0900230E901946CDF800900F2238466C
:108BB0003AF0A6FD0B9B23F001035E1E109B9D4225
:108BC00037D29DF8454000212046FFF739FF2A465D
:108BD000014609AB2046FFF7D3FE9DF845500446F9
:108BE00000212846FFF72CFF224601460AAB284603
:108BF000FFF7C6FE9DF84550044600212846FFF7C2
:108C00001FFF224601464B462846FFF7B9FE0024C7
:108C10000546224615F8011B01F07F0393401C43D3
:108C20000B0602F10702F5D40C9B099A1344B342D8
:108C300019D9029BD80730D5002403940023194684
:108C4000CDF8009038460D22089D3AF059FD039B5F
:108C5000C8F830300B9BC8F82CB0C8E9095406207E
:108C6000C8F820306DE70A9A1344B3426ED8109BBF
:108C7000AB42A6D8DDE702073FF55DAF01230293C3
:108C80000DF1300A0023CDF800A00C221946384619
:108C9000CDF830803AF05AFD70E7029B1A0752D5A2
:108CA00000F0A4F90D6A23460D22214638463AF019
:108CB00027FD0C9B9D4202D002230293E2E723464C
:108CC000CDF800A021460C223846CDF830803AF08D
:108CD0003DFDD8F830300393ABB3D8E90A4B0DF122
:108CE0002C09002C4EDB032500231A461946CDF82B
:108CF00000903846CDF82C803AF028FD0023194624
:108D00000122CDF8009038460B943AF01FFD002365
:108D100019460F22CDF8009038463AF0F1FC0B9A34
:108D20000399CDF8009002F001020A4300230B9250
:108D300038460F2219463AF009FD022D1DD00720B2
:108D400013B0BDE8F08F404627F07CF80B9B002B5A
:108D50003FF4F1AE0D9A13440393002C38D1002B4D
:108D60003FF4E9AE029BDD073FF5E5AE029B1B0732
:108D700040F1238100240225B6E74046FFF77AFD43
:108D80000720DEE66FF040431B1B1E465246594645
:108D90003846FFF779FE9DF844003946FFF750FE4C
:108DA0000E9005460F9850F8263000EB860033B140
:108DB0000246002352F8041F01330029FAD1C8E902
:108DC0000A350423C8F83400C8F8303003258BE78F
:108DD000109E039B013C2644002B3FF4ACAE029B4B
:108DE000002E00F0E28013F00803049300F0C98025
:108DF000472388F800304E2388F80130552388F83F
:108E00000230432388F80330462388F804304F2388
:108E100088F80530522388F80630002388F8073098
:108E20000023CDF818B005979B46CDF81CA0002470
:108E3000224616F8011B01F07F039340080644EA1E
:108E4000030402F10702F4D41F2A05D84B0603D508
:108E5000012393405B421C43002530462A4610F80C
:108E6000011B01F07F0393400F0645EA030502F161
:108E70000702F4D41F2A05D8490603D501239340DD
:108E80005B421D43002C37D039DCB8F1000F02D013
:108E9000049B002B50D06FF0404A0F9BAAEB040AB2
:108EA00053F82A30BBB1002D75D02E44BFE7A30084
:108EB0005B420F9A0E991A444B46FFF761FD0B99DE
:108EC00049B1B8F1000FEED008AB00224046FFF7E1
:108ED00077FC0028E7D0029BDDF81CA0D907DDE96C
:108EE000057B3FF5ABAE049B002B3FF4FAAE002CA4
:108EF000BFF6F9AE00F088F84FF0010BD3E79DF80C
:108F00004400FF2831D000F00703042B3FF61FAECA
:108F100001A252F823F000BFAF8E00004F8B00007B
:108F2000338F0000AF8E00002D8F0000E3005B4206
:108F3000BFE763005B42BCE76FF0404A0F9F089BAE
:108F40000B93AAEB040A57F82A1007EB8A0719B902
:108F50000DE057F8041F51B139444B4600224046FA
:108F6000FFF72EFC0028F4D09DE70023A1E7029B29
:108F7000DA075646DDE9057BDDF81CA03FF55EAE5D
:108F800004E798F80730012B0CBF58F8203C08F193
:108F90005803089344E75B46059F002B3FF4CBAD95
:108FA000029BDB073FF5C7ADE4E6DE073FF5C3AD47
:108FB000029B13F008047FF4DDAE022594E626F050
:108FC00051FF6DE608B5804728F0B4FF26F04AFF50
:108FD00028F0B0FF0C46054626F082FF013402D18E
:108FE0002846FFF7B5F8FFF7E5FB00BF08B5034BD0
:108FF0001868BFF35B8FFFF7E5FF00BFACC9050042
:1090000008B58047FFF7F2FF08B5034B1868BFF3B8
:109010005B8FFFF7F5FF00BFA4C90500024B18687E
:10902000BFF35B8F704700BFACC90500024B1868E7
:10903000BFF35B8F704700BFA4C90500012838BF8C
:10904000012010B5044620462AF094F800B110BD66
:1090500027F072F808B18047F5E7042026F0ACFE4F
:10906000024B034A0349036026F0D6FFEC7204006A
:10907000C1FA0200C872040008B5FFF7B7FF00BFCD
:1090800010B5034B0360044626F06EFD204610BD6C
:109090002444040010B5054B0360044626F064FD2B
:1090A00020460C21FFF784FB204610BD2444040019
:1090B00070B582B00446069E96420D4609D0A0685F
:1090C00004680696246A2946A44602B0BDE87040AA
:1090D000604719460192009300F064F8DDE9003220
:1090E0000028ECD0062002B070BD00BF2DE9F04F83
:1090F0000D4681B01946DDE90A7ADDE90C981C4677
:109100000646934600F04EF880B94F4527D0B06828
:1091100023460468CDE90C98CDE90A7AE4695A46F9
:109120002946A44601B0BDE8F04F6047002DC8F8BD
:10913000007088F804B00CDB3D44A9450CBF4FF02B
:1091400006094FF0010988F80690002001B0BDE83B
:10915000F08F0235F9D1012388F80630F5E7514642
:10916000304600F01FF80028D1D088F805B0ECE7B1
:109170002DE9F04106460F4614461D4626F02EFD09
:1091800048B9B068016822468C692B463946A44626
:10919000BDE8F0416047BDE8F08100BF704700BF07
:1091A00000207047814211D008B5406803782A2B0F
:1091B0000AD049680B782A2B08BF01312BF034F80C
:1091C000B0FA80F0400908BD002008BD01207047BA
:1091D0002DE9F04FD04FD14D3968DFF84493D14B92
:1091E0008E68DFF84483DFF844B3002483B00122A3
:1091F000C5E90094C5E90244C5E90444AC6105F140
:109200001C001A7001F092F83B682E624FF0FF3A92
:109210005B68C8F80090C8E90144C8E90344C8E99C
:109220000544C5F824A008F11C00C5F800B001935E
:1092300001F07CF8019BBE4EC8F820303B68C6F8B0
:109240000090C6E90144DB68C8F824A0C6E90344DD
:10925000C6E9054406F11C00C8F800B0DFF8D49256
:10926000019301F063F8019BDFF8CC82C6F800B0EF
:10927000C6E9083AA9F10406484608F1140A12F0B2
:10928000C5F8C6E91F44C6E9214429467467A6F813
:10929000784049F8048C4846C6F804A012F040F81B
:1092A000A64C204612F0B2F8A54B44F8083C143303
:1092B00023600023C4E91E33C4E920332367A4F8E4
:1092C000743044F8043C20469749083C12F028F8D2
:1092D0009C4DA5F10409284612F098F80023C9E92D
:1092E0001F33C9E92133924945F8048C2846C9F84F
:1092F00004A0C9F87430A9F8783012F011F8DFF83A
:1093000048B2ABF10405584612F080F80023C5E9D5
:109310001F33C5E9213386494BF8048CC5F804A0F6
:1093200058466B67A5F8783011F0FAFFD9F810307D
:10933000864DDFF81CB2A66743F40053C9F810301D
:109340003B68C9F8746000249E68AC61C5E900B44C
:10935000C5E90244C5E9044405F11C0000F0E6FF3C
:10936000DFF8F0813B682E624FF0FF39DFF8E8A1AB
:109370005B68C5F800A0C5F82490C8F800B0C8E93B
:109380000144C8E90344C8E9054408F11C000193FD
:1093900000F0CCFF019B714EC8F820303B68C6F846
:1093A00000B06F4FD3F80CB0C8F82490C8F800A0F4
:1093B000C6E90144C6E90344C6E9054406F11C00B8
:1093C00000F0B4FFDFF89C81C6F800A0C6E908B938
:1093D000384612F01BF8294608F114093D1FC5E96B
:1093E0001D44C5E92044C5E9224447F8048C3846A9
:1093F00085F87C40C5F8049011F0F2FF5A4C2046E5
:1094000012F004F8594B44F8083CA4F10806143350
:10941000B3600023C6E91E33C6E92133C6E923330E
:109420004C4986F880302046736011F0D9FF504FC8
:109430003C1F384611F0EAFF0023C4E91D33C4E99C
:109440002033C4E92233454947F8048C3846C4F830
:10945000049084F87C3011F0C3FFDFF818A1AAF162
:109460000407504611F0D2FF0023C7E91D33C7E9B6
:109470002033C7E9223339494AF8048CC7F80490ED
:10948000504687F87C3011F0ABFF3B4922690B68EE
:10949000B56742F400520133226165670B6003B087
:1094A000BDE8F08F354B7360224811F0EBFFFFF7FA
:1094B00081F9334B7B602F4811F0E4FFFFF77AF915
:1094C0002F4B63602A4811F0DDFFFFF773F92C4B37
:1094D000B360254811F0D6FFFFF76CF9284B6B609D
:1094E0001F4811F0CFFFFFF765F9244B6B6016485A
:1094F00011F0C8FFFFF75EF9204BC9F8043011489E
:1095000011F0C0FFFFF756F91C4BA3600B4811F098
:10951000B9FFFFF74FF900BF38CA0500D0D40500E6
:10952000906B0400A8C9050080D405004C620400BB
:10953000A8D405001CD70500686A040078D505008A
:109540001864040004D6050090D6050048D505002F
:10955000D06B0400F8D405008C62040020D505000F
:109560005CD90500986A0400ACD705004864040083
:109570003CD80500CCD80500ECE905006863040080
:1095800078630400064A1368591C10B5044611603C
:109590000BB1204610BDFFF71BFE204610BD00BFDB
:1095A000ECE90500114A1368591E022B10B5044658
:1095B000116001D0204610BD0D481BF05FFC0D4826
:1095C0001BF05CFC0C481BF059FC0C481BF0B6FE71
:1095D0000B481BF0B3FE0B481BF0B0FE204610BD3D
:1095E00026F040FC26F07CFCE4E700BFECE9050037
:1095F00018D7050000D605008CD6050058D90500FF
:1096000038D80500C8D80500704700BF10B504461B
:1096100026F008FB204610BD044A0B681268036060
:10962000934202D01A6801321A607047ECD90500E3
:109630000160704710B5054C206800B110BD0246AE
:109640000349204627F084F9206810BDF4D90500AD
:10965000604404000048704760440400426870B5EC
:109660000546EAB18368C3B1304E002403E0AB681D
:109670000134A34210D952F824000028F8D04368DE
:10968000591E012B4160F2D103685B68B34238D1A7
:1096900026F0C8FA6A68EAE712B1104626F0C4FA62
:1096A000EA68EAB1AB68C3B1204E002403E0AB68BE
:1096B0000134A34210D952F824000028F8D043689E
:1096C000591E012B4160F2D103685B68B3421AD185
:1096D00026F0A8FAEA68EAE712B1104626F0A4FAE2
:1096E0002B6963B10024185910B126F09DFA2B693B
:1096F0000434182CF7D113B1184626F095FA2846F1
:1097000070BD9847C6E79847E4E726F0ABFB26F024
:10971000E7FBBFE726F0A6FB26F0E2FBDAE7013124
:1097200002D1FEF715FDFAE7FFF744F80D960000A9
:1097300038B50A4B05681B689D42044604D02B6867
:109740005A1E012B2A6001D0204638BD2846FFF75B
:1097500085FF284626F066FA204638BDECD905007C
:109760000F4B1A680B68934270B50D46044602D041
:109770001968013119602668B24204D03268511E5E
:10978000012A316002D02360204670BD3046FFF7C9
:1097900065FF304626F046FA2B682360204670BDF0
:1097A000ECD90500002A00F0E5802DE9F04F0C68A7
:1097B00083B00546164624B9A94B1C6801341C60C9
:1097C0000C60AB68671E013BBB425CD204F103082E
:1097D0006FF06043984534BF4FEA880A4FF0FF3A74
:1097E0005046D5F804B026F0AFFC8146A86868B1B1
:1097F0006B6803EB800CA9F10402043BACF1040C90
:1098000053F8041F42F8041F9C45F9D1804507D93D
:10981000A8EB0002920009EB800000212AF06AF90F
:109820005046D5F80CA026F08FFCD5F808C00346AA
:10983000BCF1000F0CD0EA6802EB8C0E011F043A59
:10984000AEF1040E52F8040F41F8040F7245F9D13D
:10985000C44509D2A8EB0C0203EB8C009200002156
:1098600001932AF047F9019BEB60C5E90198BBF130
:10987000000F02D0584626F0D7F9BAF1000F02D0F7
:10988000504626F0D1F9D5F80480736858F827C0FF
:1098900001337360BCF1000F43D0724A1168002994
:1098A00038D06F480EE0D2F804E0DEF8003023B97B
:1098B000036801330360CEF800309C4269D052F84F
:1098C000081F39B30B681BB90368013303600B60D1
:1098D0009C42E8D151680B6823B9614A136801338F
:1098E00013600B605C1E58F824309BB130460DF0BD
:1098F0000BF8814658F82400D9F804300133C9F830
:10990000043043685A1E012B426068D048F8249006
:1099100058F827C0DCF804305A1E012BCCF804207C
:109920002DD0AA6848F827600AB30024EB68DFF856
:109930003881274604E0AA680F600134A24216D994
:1099400053F82400A60003EB84010028F5D04268F8
:1099500002F1FF3C012AC0F804C0ECD103685B6847
:10996000434508D126F05EF9EB689919E3E703B0A7
:10997000BDE8F08F70479847EB689919DBE7DCF892
:109980000030394A5B689342604626D126F04AF996
:10999000C7E70B6823B9324A1368013313600B60C1
:1099A0005C1E58F82430002BB4D0304604F04EFC36
:1099B000814658F82400D9F804300133C9F804303E
:1099C00043685A1E012B4260A0D10368264A5B6897
:1099D00093420BD126F026F998E79847A1E7036850
:1099E000214A5B689342F5D098478FE798478DE707
:1099F00026F038FA26F074FABEE726F033FA26F09D
:109A00006FFA8EE726F02EFA484626F00DF926F07A
:109A10001DFB26F027FA26F063FA77E726F022FAF4
:109A200026F05EFA72E7013115D1FEF791FB0131A4
:109A300005D1FEF78DFB013103D1FEF789FBFEF75F
:109A4000B9FEFEF7B7FE26F04BFAFEF7B3FE013182
:109A500003D1FEF77DFBFEF7ADFEFEF7ABFE00BFC8
:109A6000F0D90500804404000D9600002DE9F04176
:109A7000374C2378BFF35B8FDB0707460E4615464E
:109A80004AD5344B1C68002C3AD033489C460BE036
:109A900023B90168013101600B461160013B9D4211
:109AA00043D05CF8084F5CB3236823B902680132E5
:109AB000026013462260013BDCF804209D421368DB
:109AC000E6D1002B3BD0013BFA6852F8251051B18A
:109AD000A6B13368214A5B689342304635D1BDE870
:109AE000F04126F09FB87168481C7060581C42F81D
:109AF000256003D00231716042F82360BDE8F08137
:109B0000FB6853F82520002AE2D1726801327260A6
:109B100043F82560BDE8F081204626F0CFFA002802
:109B2000AFD0204626F0E6FAABE7226822B90A4B0E
:109B30001A6801321A6022602B46551EC4E7064996
:109B40000B6801330B601360BDE7BDE8F0411847B7
:109B5000E8D9050080440400F0D905000D96000006
:109B600003682BB903490A6801320A601346026090
:109B7000581E7047F0D905002DE9F04FC54C016023
:109B8000302389B006468360C0220021204629F098
:109B9000B1FFC14B746000211846C02229F0AAFF12
:109BA000BE4DBF4A0024C6E90302C2E90054C2E91F
:109BB0000244C2E90444FFF74DFD02882A80B948F7
:109BC00001232246214605F0F9FDB64AB649304642
:109BD000FFF7E8FDB548012126F066FFB34AB44916
:109BE0003046FFF7DFFDB34CB348B44A846001232D
:109BF0000021C4E900234360B14B2174C4E9021180
:109C0000C4E90511C4E90711A18484F86410036054
:109C100001F07EF8A84AAB493046FFF7C3FDAA4AD7
:109C2000AA4B1360012151603046A949FFF7BAFDE4
:109C3000A84AA94B1360012151603046A749FFF79C
:109C4000B1FDA74CA74B0122C4E90032FFF7F2FC9B
:109C5000A060A54922463046FFF7A4FDDFF88CA29C
:109C6000A34AA4480123CAE90023C0E9013A00221B
:109C7000A14BAAF81020CAE90222CAE90522CAE9C2
:109C80000722CAE90922CAE90B228AF81220CAF877
:109C900034208AF843200360114600F0CDFB954A3A
:109CA00096493046FFF77EFDDFF854929548012330
:109CB000C0E90139C9F80430934BC9F800300022DB
:109CC000924BA9F81020C9E90222C9E90522C9E985
:109CD0000722C9E90922C9E90B2289F81220C9F82B
:109CE000342089F843200360114600F059FB854A6F
:109CF00087493046FFF756FD864A874B136001239C
:109D0000864953603046FFF74DFD854A854B136009
:109D10000123854953603046FFF744FD834D844954
:109D2000296000230122C5E90123C5E90333C5E900
:109D30000533C5E90733C5E90933C5E90B33C5E97F
:109D40000D33C5E90F33C5E91133C5E91333C5E94F
:109D50001533C5E91733C5E91933C5E91B33C5E91F
:109D60001D33EB677348C5E920332946C5E9223323
:109D7000C5E92433C5E92633C5E92833C5E92A33C3
:109D8000C5E92C33C5E92E33C5F8C03085F8C43099
:109D900012F0ECF8674A68493046FFF703FD674A5E
:109DA000674B13600123674953603046FFF7FAFCA5
:109DB000654A664B13600123654953603046FFF7DF
:109DC000F1FC644801210AF0BFFB624A6249304657
:109DD000FFF7E8FC6148012105F0C0FC5F4A6049DB
:109DE0003046FFF7DFFC5F48012126F075FE5D4A33
:109DF0005D493046FFF7D6FCDFF870B15C480123BF
:109E0000CBF8043043605B4BCBF800305A4BC0F8C2
:109E100008B000210360CBE90211CBE90511CBE9C1
:109E20000711CBE909118BF810108BF8241100F001
:109E3000FDFF4F4A51493046FFF7B4FC504A514BA1
:109E400013600123504953603046FFF7ABFC4F4A83
:109E50004F4B136001234F4953603046FFF7A2FC7C
:109E60004D4C4E4B236001236360FFF7E3FBA06082
:109E70004B4922463046FFF795FCDFF828814A48D7
:109E80000123C8F804304360484BC8F80030002272
:109E90008EE000BFA4E70500B4E605008CDF0500F6
:109EA0009CE6050098DF050064E9050074E70500FD
:109EB000C4EA050004DB050020DA05008C45040037
:109EC0003054040098E9050064E8050008650400C2
:109ED00038EA050074E805004465040034EA05002A
:109EE0008CE70500145404008CE9050024DE05000D
:109EF00020450400C4DA050088540400A8E90500E0
:109F000068DE0500D0DA0500104504005454040052
:109F1000A4E9050068DA0500D8540400A0E90500AA
:109F200078DA0500F05404009CE9050094DC050093
:109F30007465040088DA050030EA050038DA0500A7
:109F40000855040094E9050048DA05007466040029
:109F50002CEA050000DA050090E90500B8E10500EB
:109F600068E9050080E70500C8EA05006CDB05002C
:109F70002CDA05009C450400305F0400D8E9050098
:109F80006CE805002C6D040098EA05007CE80500EB
:109F9000686D040094EA050098E70500145F04006A
:109FA000CCE90500ACDE0500DCDA05004045040024
:109FB000AC4BC0F8088003601146C8E90222C8E92A
:109FC0000522C8E90722C8E90922C8E90B22C8E925
:109FD0000D2288F81020C8F83C2088F86C2000F08A
:109FE00027FBA14AA1493046FFF7DCFBA04FA1485F
:109FF00001237B604360A04B3B6000229F4B876046
:10A0000003601146C7E90222C7E90522C7E9072212
:10A01000C7E90922C7E90B22C7E90D223A74FA639E
:10A0200087F86C2000F0B8FA924A95493046FFF75D
:10A03000B9FB944A944B1360012394495360304612
:10A04000FFF7B0FB924A934B136001239249536090
:10A050003046FFF7A7FB914C914921600023012274
:10A06000C4E90123C4E90333C4E90533C4E9073370
:10A07000C4E90933C4E90B33C4E90D33C4E90F3330
:10A08000C4E91133C4E91333C4E91533C4E9173300
:10A09000C4E91933C4E91B33C4E91D33E3678148BC
:10A0A000C4E920332146C4E92233C4E92433C4E996
:10A0B0002633C4E92833C4E92A33C4E92C33C4E97C
:10A0C0002E33C4F8C03084F8C4301CF073FC754AD9
:10A0D00075493046FFF766FB744A754B13600123E0
:10A0E000744953603046FFF75DFB734A734B13604E
:10A0F0000123734953603046FFF754FB7148012137
:10A1000010F098FE6F4A70493046FFF74BFB6F4ADC
:10A110006F4B136001236F4953603046FFF742FBDA
:10A120006D4A6E4B136001236D4953603046FFF753
:10A1300039FB6C4A6C4B136001236C495360304609
:10A14000FFF730FB6A4A6B4B136001236A49536087
:10A150003046FFF727FB694A02A93046CDE9022ABB
:10A16000CDE9049BCDE9068701F058FDF36864480A
:10A170000193FFF7F5FC019B604A43F82020F36848
:10A1800060480193FFF7ECFC019B43F820A05E4878
:10A19000D6F80CA0FFF7E4FC4AF820905B48D6F80C
:10A1A0000C90FFF7DDFC49F820505948F568FFF79F
:10A1B000D7FC45F820B02D48F568FFF7D1FC45F8ED
:10A1C00020802F48F568FFF7CBFC45F82070364813
:10A1D000F568FFF7C5FC45F82040304609B0BDE8FA
:10A1E000F08F04460B4601333AD12046FDF7B0FF0D
:10A1F0000D4604461F48FFF707FA2B46F3E70D46C6
:10A2000004464448FFF700FA2B46ECE70D460446A7
:10A210004148FFF7F9F92B46E5E70D4604463F486C
:10A22000FFF7F2F92B46DEE70D4604463C48FFF700
:10A23000EBF92B46D7E70D4604463A48FFF7E4F919
:10A240002B46D0E70D4604463748FFF7DDF92B468D
:10A25000C9E70D4604460448FFF7D6F92B46C2E786
:10A26000FEF7A8FA885F0400DCDA0500E8E90500DB
:10A270001CDF0500E8DA050030450400545F0400E7
:10A28000E4E9050070DA0500D85F0400E0E90500A4
:10A2900080DA0500F05F0400DCE905005CDD050004
:10A2A000986D04009CDA050090EA050040DA05008C
:10A2B00008600400D4E9050050DA0500986E040037
:10A2C0008CEA050010DA0500D0E9050058DA05002F
:10A2D000E448040090E8050060DA05008C480400BA
:10A2E00088E80500F4DA0500B84804008CE80500A9
:10A2F000FCDA05006048040084E8050004DB050082
:10A3000098E90500A8E90500A4E9050030EA050080
:10A31000D8E90500D0DA0500C4DA05008CE70500AD
:10A3200020DA050098E705002CDA0500F8B5174E8D
:10A330003368002204460260D3B1154D2A682260BA
:10A340009A420AD0134E3378BFF35B8FDB0706D5F2
:10A350002B6823601A6801321A602046F8BD304627
:10A3600025F0ACFE0028F3D0304625F0C3FEEFE721
:10A37000094F074D02213846FFF7FEFB07483760BB
:10A3800039462F60FFF754F93368D7E7ECD9050059
:10A39000F8D90500FCD90500B0DA050098E60500FB
:10A3A00010B50446806830B32E234374A3681E4959
:10A3B0002C229A741D4AA368106818630022C3E90E
:10A3C0000212C3E90512C3E90712C3E90912DA62EE
:10A3D000174AA3681268586302F10A0C531EC2F1AF
:10A3E0000100A268C1180A4413F8011F82F838104E
:10A3F0006345F6D110BD4420FEF720FE0D4AA06053
:10A400000023C0E90023C0E90233C0E90533C0E9F5
:10A410000733C0E90933C0E90B3303828374436314
:10A4200080F84330C0E700BF786B0400707604000A
:10A43000B8C905001045040010B50446806830B363
:10A440002E234374A3681E492C229A741D4AA368C4
:10A45000106818630022C3E90212C3E90512C3E9B8
:10A460000712C3E90912DA62174AA368126858632F
:10A4700002F10A0C531EC2F10100A268C1180A447D
:10A4800013F8011F82F838106345F6D110BD44203F
:10A49000FEF7D4FD0D4AA0600023C0E90023C0E907
:10A4A0000233C0E90533C0E90733C0E90933C0E925
:10A4B0000B3303828374436380F84330C0E700BFEB
:10A4C000786B040070760400B8C9050020450400CC
:10A4D00010B504468068084B236010B103685B68C0
:10A4E00098472046FFF790F8204610BD2046FFF71A
:10A4F0008BF8FEF75FF900BF5454040010B5044612
:10A5000080680B4B236010B103685B689847204656
:10A51000FFF77AF8204625F085FB204610BD20463F
:10A52000FFF772F8204625F07DFBFEF743F9F9E7C7
:10A530005454040010B504468068084B236010B1E1
:10A5400003685B6898472046FFF75EF8204610BD19
:10A550002046FFF759F8FEF72DF900BF8854040094
:10A5600010B5044680680B4B236010B103685B682C
:10A5700098472046FFF748F8204625F053FB204631
:10A5800010BD2046FFF740F8204625F04BFBFEF7B4
:10A5900011F9F9E78854040038B58368044613B309
:10A5A0001E491F4D08681F4998630022C3E907121E
:10A5B000C3E90912C3E90B129D60DA605A632E25C4
:10A5C000A2685D6118492C259D61D0630968A26865
:10A5D0004B1E3C3201F10A0013F8011F42F8041F20
:10A5E0008342F9D138BD7020FEF728FD0F49A060E5
:10A5F0000022C0E90012C0E90222C0E90522C0E938
:10A600000722C0E90922C0E90B22C0E90D22034656
:10A610000274C26380F86C20C2E700BF7076040049
:10A62000786B040030900400B8C905003045040080
:10A6300038B58368044613B31E491F4D08681F4987
:10A6400098630022C3E90712C3E90912C3E90B1298
:10A650009D60DA605A632E25A2685D6118492C2539
:10A660009D61D0630968A2684B1E3C3201F10A006B
:10A6700013F8011F42F8041F8342F9D138BD70203E
:10A68000FEF7DCFC0F49A0600022C0E90012C0E91F
:10A690000222C0E90522C0E90722C0E90922C0E977
:10A6A0000B22C0E90D2203460274C26380F86C20BD
:10A6B000C2E700BF70760400786B0400309004009D
:10A6C000B8C905004045040010B504468068084B31
:10A6D000236010B103685B6898472046FEF794FF3B
:10A6E000204610BD2046FEF78FFFFEF763F800BF3F
:10A6F000545F040010B5044680680B4B236010B112
:10A7000003685B6898472046FEF77EFF204625F0E9
:10A7100089FA204610BD2046FEF776FF204625F038
:10A7200081FAFEF747F8F9E7545F040010B50446D4
:10A730008068084B236010B103685B689847204627
:10A74000FEF762FF204610BD2046FEF75DFFFEF7D4
:10A7500031F800BF885F040010B5044680680B4BD9
:10A76000236010B103685B6898472046FEF74CFFF2
:10A77000204625F057FA204610BD2046FEF744FF3C
:10A78000204625F04FFAFEF715F8F9E7885F040038
:10A7900090F843300C4A10B5044602607BB18068E3
:10A7A00008B125F041FA606908B125F03DFAE06989
:10A7B00008B125F039FA606A08B125F035FA20466B
:10A7C000FEF722FF204610BD1045040010B50446D8
:10A7D000FFF7DEFF204625F025FA204610BD204673
:10A7E00025F020FAFDF7E6FF90F843300C4A10B54B
:10A7F000044602607BB1806808B125F015FA6069F3
:10A8000008B125F011FAE06908B125F00DFA606A87
:10A8100008B125F009FA2046FEF7F6FE204610BDE5
:10A820002045040010B50446FFF7DEFF204625F062
:10A83000F9F9204610BD204625F0F4F9FDF7BAFFDE
:10A8400090F86C300C4A10B5044602607BB1806809
:10A8500008B125F0E9F9E06908B125F0E5F9606A89
:10A8600008B125F0E1F9E06A08B125F0DDF92046EC
:10A87000FEF7CAFE204610BD3045040010B5044660
:10A88000FFF7DEFF204625F0CDF9204610BD20461B
:10A8900025F0C8F9FDF78EFF90F86C300C4A10B522
:10A8A000044602607BB1806808B125F0BDF9E0691B
:10A8B00008B125F0B9F9606A08B125F0B5F9E06A88
:10A8C00008B125F0B1F92046FEF79EFE204610BDE6
:10A8D0004045040010B50446FFF7DEFF204625F092
:10A8E000A1F9204610BD204625F09CF9FDF762FF36
:10A8F00010B50446806830B32E234374A3681E4904
:10A900002C229A741D4AA368106818630022C3E9B8
:10A910000212C3E90512C3E90712C3E90912DA6298
:10A92000174AA3681268586302F10A0C531EC2F159
:10A930000100A268C1180A4413F8011F82F83810F8
:10A940006345F6D110BD4420FEF778FB0D4AA060A8
:10A950000023C0E90023C0E90233C0E90533C0E9A0
:10A960000733C0E90933C0E90B33038283744363BF
:10A9700080F84330C0E700BF786B040070760400B5
:10A98000B8C905001045040010B50446806830B30E
:10A990002E234374A3681E492C229A741D4AA3686F
:10A9A000106818630022C3E90212C3E90512C3E963
:10A9B0000712C3E90912DA62174AA36812685863DA
:10A9C00002F10A0C531EC2F10100A268C1180A4428
:10A9D00013F8011F82F838106345F6D110BD4420EA
:10A9E000FEF72CFB0D4AA0600023C0E90023C0E95C
:10A9F0000233C0E90533C0E90733C0E90933C0E9D0
:10AA00000B3303828374436380F84330C0E700BF95
:10AA1000786B040070760400B8C905002045040076
:10AA200038B58568114B0360044655B12B68104A50
:10AA30005B689342284609D1FFF7AAFE284625F015
:10AA4000F1F82046FEF7E0FD204638BD9847204645
:10AA5000FEF7DAFD204638BD02E0284625F0E2F890
:10AA60002046FEF7D1FDFDF7A5FE00BF946504006A
:10AA7000CDA7000010B50446FFF7D2FF204625F011
:10AA8000D1F8204610BD204625F0CCF8FDF792FE07
:10AA900038B58568114B0360044655B12B68104AE0
:10AAA0005B689342284609D1FFF79EFE284625F0B1
:10AAB000B9F82046FEF7A8FD204638BD9847204645
:10AAC000FEF7A2FD204638BD02E0284625F0AAF890
:10AAD0002046FEF799FDFDF76DFE00BFC865040036
:10AAE00025A8000010B50446FFF7D2FF204625F048
:10AAF00099F8204610BD204625F094F8FDF75AFE3F
:10AB000038B58368044613B31E491F4D08681F49B2
:10AB100098630022C3E90712C3E90912C3E90B12C3
:10AB20009D60DA605A632E25A2685D6118492C2564
:10AB30009D61D0630968A2684B1E3C3201F10A0096
:10AB400013F8011F42F8041F8342F9D138BD702069
:10AB5000FEF774FA0F49A0600022C0E90012C0E9B4
:10AB60000222C0E90522C0E90722C0E90922C0E9A2
:10AB70000B22C0E90D2203460274C26380F86C20E8
:10AB8000C2E700BF70760400786B040030900400C8
:10AB9000B8C905003045040038B58368044613B3CE
:10ABA0001E491F4D08681F4998630022C3E9071218
:10ABB000C3E90912C3E90B129D60DA605A632E25BE
:10ABC000A2685D6118492C259D61D0630968A2685F
:10ABD0004B1E3C3201F10A0013F8011F42F8041F1A
:10ABE0008342F9D138BD7020FEF728FA0F49A060E2
:10ABF0000022C0E90012C0E90222C0E90522C0E932
:10AC00000722C0E90922C0E90B22C0E90D22034650
:10AC10000274C26380F86C20C2E700BF7076040043
:10AC2000786B040030900400B8C90500404504006A
:10AC300038B58568114B0360044655B12B68104A3E
:10AC40005B689342284609D1FFF7FAFD284624F0B5
:10AC5000E9FF2046FEF7D8FC204638BD984720463D
:10AC6000FEF7D2FC204638BD02E0284624F0DAFF89
:10AC70002046FEF7C9FCFDF79DFD00BFB86D04003E
:10AC80007DA8000010B50446FFF7D2FF204624F04F
:10AC9000C9FF204610BD204624F0C4FFFDF78AFD01
:10ACA00038B58568114B0360044655B12B68104ACE
:10ACB0005B689342284609D1FFF7EEFD284624F051
:10ACC000B1FF2046FEF7A0FC204638BD984720463D
:10ACD000FEF79AFC204638BD02E0284624F0A2FF89
:10ACE0002046FEF791FCFDF765FD00BFEC6D04000A
:10ACF000D5A8000010B50446FFF7D2FF204624F087
:10AD000091FF204610BD204624F08CFFFDF752FD38
:10AD100038B583680446002B35D0254A254D106888
:10AD20002E2183F82410A1680022C3E902521A746C
:10AD30002C2381F8253000F1230C431EC0F10100C3
:10AD4000A268C1180A4413F8011F82F8261063454F
:10AD5000F6D1194B1868431E00F1190CC0F101001F
:10AD6000A268C1180A4413F8011F82F84A1063450B
:10AD7000F6D1A3681149124C04200522C3E905400D
:10AD8000C3E9071238BD6820FEF758F90D49A060E5
:10AD90000022C0E90012C0E90222C0E90522C0E990
:10ADA000072203460274828480F86420B5E700BF5E
:10ADB000B4C90500786B0400B0C905005045040013
:10ADC000484504008C45040010B504468068084BD3
:10ADD000236010B103685B6898472046FEF714FCB7
:10ADE000204610BD2046FEF70FFCFDF7E3FC00BF38
:10ADF0003054040010B5044680680B4B236010B13A
:10AE000003685B6898472046FEF7FEFB204624F067
:10AE100009FF204610BD2046FEF7F6FB204624F031
:10AE200001FFFDF7C7FCF9E73054040010B50446F4
:10AE3000806858B3204B214C196884600023024677
:10AE4000C36003742E242C23446201F1230C42F8C6
:10AE5000283F4B1E13F8011F42F8041F6345F9D128
:10AE6000174B196800F1B8024B1E01F1190C13F8C9
:10AE7000011F42F8041F6345F9D1124C124A042104
:10AE80000523C0E90541C0E9072310BD4FF49470C4
:10AE9000FEF7D4F80D4AA0600023C0E90023C0E902
:10AEA0000233C0E90533C0E90733C0E9093303744D
:10AEB00080F82431BEE700BFB4C90500786B0400F8
:10AEC000B0C90500584504006C4504009C450400C9
:10AED00010B504468068084B236010B103685B68B6
:10AEE00098472046FEF790FB204610BD2046FEF70F
:10AEF0008BFBFDF75FFC00BF305F040010B504461C
:10AF000080680B4B236010B103685B68984720464C
:10AF1000FEF77AFB204624F085FE204610BD204631
:10AF2000FEF772FB204624F07DFEFDF743FCF9E7B7
:10AF3000305F040090F864300A4A10B5044602609D
:10AF40005BB1806808B124F06FFE606908B124F03D
:10AF50006BFEE06908B124F067FE2046FEF754FB63
:10AF6000204610BD8C45040010B50446FFF7E2FFF3
:10AF7000204624F057FE204610BD204624F052FE05
:10AF8000FDF718FC90F824310A4A10B50446026017
:10AF90005BB1806808B124F047FE606908B124F015
:10AFA00043FEE06908B124F03FFE2046FEF72CFB8B
:10AFB000204610BD9C45040010B50446FFF7E2FF93
:10AFC000204624F02FFE204610BD204624F02AFE05
:10AFD000FDF7F0FB38B583680446002B35D0254AD1
:10AFE000254D10682E2183F82410A1680022C3E9A2
:10AFF00002521A742C2381F8253000F1230C431ED1
:10B00000C0F10100A268C1180A4413F8011F82F8B8
:10B0100026106345F6D1194B1868431E00F1190C30
:10B02000C0F10100A268C1180A4413F8011F82F898
:10B030004A106345F6D1A3681149124C0420052239
:10B04000C3E90540C3E9071238BD6820FDF7F6FFE4
:10B050000D49A0600022C0E90012C0E90222C0E947
:10B060000522C0E9072203460274828480F8642026
:10B07000B5E700BFB4C90500786B0400B0C905008E
:10B0800050450400484504008C45040038B58568E7
:10B09000114B0360044655B12B68104A5B6893421C
:10B0A000284609D1FFF746FF284624F0BBFD20467D
:10B0B000FEF7AAFA204638BD98472046FEF7A4FAC4
:10B0C000204638BD02E0284624F0ACFD2046FEF7BD
:10B0D0009BFAFDF76FFB00BFE464040069AF00005A
:10B0E00010B50446FFF7D2FF204624F09BFD204612
:10B0F00010BD204624F096FDFDF75CFB10B504461C
:10B10000806858B3204B214C1968846000230246A4
:10B11000C36003742E242C23446201F1230C42F8F3
:10B12000283F4B1E13F8011F42F8041F6345F9D155
:10B13000174B196800F1B8024B1E01F1190C13F8F6
:10B14000011F42F8041F6345F9D1124C124A042131
:10B150000523C0E90541C0E9072310BD4FF49470F1
:10B16000FDF76CFF0D4AA0600023C0E90023C0E991
:10B170000233C0E90533C0E90733C0E9093303747A
:10B1800080F82431BEE700BFB4C90500786B040025
:10B19000B0C90500584504006C4504009C450400F6
:10B1A00038B58568114B0360044655B12B68104AC9
:10B1B0005B689342284609D1FFF7E4FE284624F055
:10B1C00031FD2046FEF720FA204638BD984720463C
:10B1D000FEF71AFA204638BD02E0284624F022FD88
:10B1E0002046FEF711FAFDF7E5FA00BF086D0400EE
:10B1F000B9AF000010B50446FFF7D2FF204624F097
:10B2000011FD204610BD204624F00CFDFDF7D2FABA
:10B21000009B03201A607047002070470020704791
:10B2200004207047009B03201A607047009B032096
:10B230001A607047009B03201A607047D0E9003203
:10B24000B2EB030C2FD030B593F900E01A78BEF1C1
:10B25000000F044615DAC12A22D9DF2A15D8BCF11D
:10B26000010F50D0587800F0C00CBCF1800F17D1FE
:10B2700000EB8210A0F54250814201D302332360DB
:10B2800030BD01330360104630BDEF2A0ED8BCF14B
:10B29000020F38D9587800F0C00CBCF1800F35D0BF
:10B2A0004FF0FF3030BD6FF001007047F42AF7D83F
:10B2B000BCF1030F27D9587800F0C00CBCF1800F07
:10B2C000EED1F02A3AD0F42A01D18F28E8D893F8A9
:10B2D00002C00CF0C00EBEF1800FE1D193F803E084
:10B2E0000EF0C005802DDBD1000300EB824202EBA3
:10B2F0008C127244A2F17270A0F502508842BFD83D
:10B300000433236030BD6FF0010030BDE02A12D05D
:10B3100093F802C00CF0C00EBEF1800FC0D18001C6
:10B3200000EB02326244A2F5622080388142A7D34A
:10B330000333236030BD9F28EAD8B1E78F28C6D8F1
:10B34000AEE700BFD0E90032B2EB030C2FD030B52E
:10B3500093F900E01A78BEF1000F044615DAC12A0D
:10B3600022D9DF2A15D8BCF1010F50D0587800F04F
:10B37000C00CBCF1800F17D100EB8210A0F5425039
:10B38000814201D30233236030BD01330360104694
:10B3900030BDEF2A0ED8BCF1020F38D9587800F032
:10B3A000C00CBCF1800F35D04FF0FF3030BD6FF0D6
:10B3B00001007047F42AF7D8BCF1030F27D9587859
:10B3C00000F0C00CBCF1800FEED1F02A3AD0F42A84
:10B3D00001D18F28E8D893F802C00CF0C00EBEF15E
:10B3E000800FE1D193F803E00EF0C005802DDBD192
:10B3F000000300EB824202EB8C127244A2F17270E5
:10B40000A0F502508842BFD80433236030BD6FF0EE
:10B41000010030BDE02A12D093F802C00CF0C00E3B
:10B42000BEF1800FC0D1800100EB02326244A2F570
:10B43000622080388142A7D30333236030BD9F2828
:10B44000EAD8B1E78F28C6D8AEE700BF10B5034BE6
:10B4500003600446FEF7D8F8204610BDC845040036
:10B4600010B5034B03600446FEF7CEF8204610BD2E
:10B47000F445040010B5034B03600446FEF7C4F81E
:10B48000204610BD2046040010B5034B036004465F
:10B49000FEF7BAF8204610BD4C46040010B5054B27
:10B4A00003600446FEF7B0F8204624F0BBFB2046BC
:10B4B00010BD00BFC845040010B5054B036004462D
:10B4C000FEF7A2F8204624F0ADFB204610BD00BFD9
:10B4D000F445040010B5054B03600446FEF794F8EC
:10B4E000204624F09FFB204610BD00BF20460400EC
:10B4F00010B5054B03600446FEF786F8204624F09D
:10B5000091FB204610BD00BF4C4604007F2908D89F
:10B51000D0E900329A4242D05A1C026001201970D0
:10B520007047B1F5006F10B413D2D0E900239B1A15
:10B53000012B36D98B09541C403B046013700368FF
:10B5400001F03F015A1C803902601970012010BCC3
:10B550007047B1F5803F19D3B1F5881F21D2D0E9EA
:10B5600000239B1A032B1CD98B0C541C103B04602A
:10B5700013700268C1F30533541C803B04601370E0
:10B580000268C1F38513541C803BD6E7D0E9002341
:10B590009B1A022B05D90B0B541C203BEEE7002015
:10B5A0007047002010BC7047B1F5006F12D2D0E98F
:10B5B00000239B1A012B47D913464FEA911CACF18B
:10B5C000400C03F802CB01F03F01803903600120F9
:10B5D00051707047B1F5803F16D2D0E90032D21ACF
:10B5E000022A31D9C1F385124FEA113C803A01F0A9
:10B5F0003F015A70ACF1200C8039DA1C83F800C08E
:10B600000260012099707047B1F5881F1CD2D0E903
:10B610000032D21A032A17D9C1F30532803A10B486
:10B620004FEA914C5A70C1F3851201F03F011C1D85
:10B63000ACF1100C803A803983F800C09A70046035
:10B64000012010BCD9707047002070472DE9F843E5
:10B65000054640682C6884421646A0EB040237D0A9
:10B660000F4698461FE0B8F1010F2ED04A452FD95A
:10B670006488A4F55C43B3F5806FA4F15774A4F516
:10B68000773422D204EB8121B14238461DD8FFF72E
:10B690003DFF00B3D5E9004304EB4904A3422C600D
:10B6A000A3EB040214D02188A1F55843B3F5806FB1
:10B6B0004FF00209A1F55C40D5D3B0F5806F04D3FB
:10B6C000B1424FF001093846E1D90220BDE8F883C4
:10B6D0000020BDE8F8830120BDE8F88300B585B0FF
:10B6E0001846079902910899009201900391074A20
:10B6F00002A900236846FFF7A9FF0699009A0A608D
:10B70000029B099A136005B05DF804FBFFFF10006F
:10B7100030B583B0CDE90023069868B107491546D6
:10B72000441E02E0B0F5881F04D26846FFF70AFE07
:10B73000013CF7D20098401B03B030BDFFFF100062
:10B7400070B59A4282B0CDE90023DDE907451AD0F1
:10B750000F4E0CE0FFF7F6FD831C0CD0B0F5881FF0
:10B76000009B12D2019A44F8040B9A420BD0A542D6
:10B7700031466846EED1009B0120069A1360099B72
:10B780001C6002B070BD0020F7E70220F5E700BFA3
:10B79000FFFF1000F0B583B0CDE90023089E012E15
:10B7A00017464FF0010414D90F49002507E0B0F502
:10B7B000803F38BF2C46651C0234A64209D9684632
:10B7C000FFF7C0FDB0F5881FF1D30098C01B03B090
:10B7D000F0BDA642F9D14FF6FF716846FFF7B2FD02
:10B7E0000098C01B03B0F0BDFFFF100070B582B021
:10B7F000DDE9075114469C42CDE90051A3EB02025A
:10B8000046D01E4618E0022A32D96288A2F55C436F
:10B81000B3F5806F36D2A2F15772A2F5773202EB00
:10B82000812102256846FFF7BFFE70B36A00144409
:10B83000A642A6EB04021BD02188A1F55843B3F51C
:10B84000806FE0D3A1F55C43B3F5806F1AD37F29F5
:10B8500088BF0125E6D8DDE90053AB420BD00222B8
:10B8600014446B1CA6420093A6EB04022970E3D19A
:10B87000009D002000E00120069B1C60099B1D60CC
:10B8800002B070BD009D0220F6E7009D0120F3E7A5
:10B890000020F1E770B582B0DDE907109A42CDE9EA
:10B8A000001014462BD01E460AE0DDE900138B423F
:10B8B00001F1010016D000900A70A64225461BD067
:10B8C0002268B2F5881F25461146684604F1040433
:10B8D0000FD27F2AE9D9FFF767FE0028EDD1009942
:10B8E000012000E00120069B1D60099B196002B049
:10B8F00070BD00990220F6E700990020F3E7154695
:10B900000020F0E7F0B59A4283B0CDE90023DDE9ED
:10B910000964174631D01E4D06E023F8020B1E467F
:10B92000DDE90073BB4228D0B4422946684626D0E0
:10B93000FFF708FD811C3346A4EB060222D0B0F5C8
:10B94000881F22D2B0F5803FE7D3022A06D8012013
:10B95000089B1F600B9B1E6003B0F0BD820AA2F51E
:10B96000215223F8042BC0F30900A0F51050708079
:10B970001E46DDE90073BB42D6D10020E8E7009FF8
:10B980000020E5E7009F0120E2E7009F0220DFE7BB
:10B99000FFFF100070B582B0DDE907109A42CDE9D3
:10B9A000001014461DD01E4605E0FFF7AFFD90B114
:10B9B000A642254612D02168B1F5881F2546684663
:10B9C00004F10404F1D300990220069B1D60099B39
:10B9D000196002B070BD00990120F6E700990020BF
:10B9E000F3E715460020F0E730B583B0CDE900233A
:10B9F000069868B107491546441E02E0B0F5881F55
:10BA000004D26846FFF71AFC013CF7D20098401BAD
:10BA100003B030BDFFFF100070B59A4282B0CDE98F
:10BA20000023DDE907451AD00F4E0CE0FFF706FCB6
:10BA3000831C0CD0B0F5881F009B12D2019A44F8E9
:10BA4000040B9A420BD0A54231466846EED1009BCA
:10BA50000120069A1360099B1C6002B070BD002093
:10BA6000F7E70220F5E700BFFFFF100070B582B0D6
:10BA7000CDE900019DF818500C4619466B07164693
:10BA800024D4012E12D90025012407E0B0F5803F0F
:10BA900038BF2C46651C0234B44208D26846FFF712
:10BAA000CDFB8142F2D2009802B070BD0124A642C3
:10BAB000F9D14FF6FE724FF6FF73914288BF1946D7
:10BAC0006846FFF7BBFB009802B070BD241A022C39
:10BAD000D7D90378EF2BD4D14378BB2BD1D183783E
:10BAE000BF2B04BF03300090CBE700BF10B582B07E
:10BAF0001446002019460090034B049A2046FFF795
:10BB0000B5FF001B02B010BDFFFF10002DE9F04192
:10BB10000D4611465A07064649D4D0E900784745F4
:10BB200042D06A6803F001040EE0D5E900329A427F
:10BB30001DD080B20CB940BA80B29F1C2F60D6E9EC
:10BB40000078B84518802FD02B689A422CD0304608
:10BB5000FFF774FB831C3CD081423FD3B0F5803F9C
:10BB6000E3D3D5E900C2A2EB0C03022B04D8C6E94B
:10BB700000780120BDE8F081C0F30903870AA7F52A
:10BB80002150A3F5105380B29BB21CB940BA5BBAE6
:10BB900080B29BB2674627F8040B2F60D6E9007885
:10BBA000B845ACF80230CFD10020BDE8F081D0E933
:10BBB0000078A8EB0702022AB1D93A78EF2AAED171
:10BBC0007A78BB2AABD1BA78BF2A04BF03370760A3
:10BBD000A5E7069B581CC0B2BDE8F0810220BDE875
:10BBE000F08100BF10B586B0184609990491002471
:10BBF0000A99029203900591074A009404A901232F
:10BC000002A8FFF783FF0899029A0A60049B0B9A27
:10BC1000136006B010BD00BFFFFF10002DE9F04F0C
:10BC2000D1E900BAAE4DAF4B2B600123D1F808909B
:10BC30006B600E46044685B0C5F808B00021284662
:10BC4000FFF7C8F96B686768A74801336B60FDF7B9
:10BC500087FF47F82050A54DA54B2B6001236B6053
:10BC6000FDF7E8FC6B68D4F80480A86001336B60D2
:10BC7000A048A14FFDF774FFA04B48F820500022C8
:10BC80003B600123C7F808A07B6011463846FEF7E9
:10BC90007BFE7B68D4F8048099489A4D01337B6021
:10BCA000FDF75EFF984B48F8207000222B600123BF
:10BCB000C5F808906B6011462846FEF719FE6B68C0
:10BCC0006768924801336B60FDF74AFF47F82050E0
:10BCD0008F4D904B67682B604FF00208C5F80480C9
:10BCE0008D48FDF73DFF47F820508C4D8C4B676821
:10BCF0002B60C5F804808B48FDF732FF47F82050D1
:10BD0000894F8A4B3B608A486368C7F80480019377
:10BD1000FDF726FF874D019B012143F8207028463F
:10BD200010F03EF96B686768834801336B60FDF77C
:10BD300017FF47F82050814D814B2B600123D6F827
:10BD40000C806B6033690193C5F8088073690293B6
:10BD500000212846FFF7D2F96B68666879480133FD
:10BD60006B60FDF7FDFE46F82050774D774B2B605A
:10BD700001236B60FDF75EFC6B686768A8600133A8
:10BD80006B607348734EFDF7EBFE019B47F8205044
:10BD9000B360714B3360002201237360114630465B
:10BDA000FEF7FAFE736867686C486D4D0133736087
:10BDB000FDF7D6FE029B47F82060AB60694B2B6015
:10BDC000002201236B6011462846FEF799FE6B683E
:10BDD0006668654801336B60FDF7C2FE46F8205087
:10BDE000624D634A66682A6002276F606148FDF70A
:10BDF000B7FE46F82050604D604A66682A606F6062
:10BE00005F48FDF7ADFE46F820505E4E5E4A326058
:10BE10005E48626877600392FDF7A2FE5C4D039A6C
:10BE2000012142F8206028461AF0DEFD6B68666842
:10BE3000584801336B60FDF793FE46F820502A48BE
:10BE4000E568FDF78DFE45F820B02D48E568FDF763
:10BE500087FE45F820A02D48E568FDF781FE45F8EE
:10BE600020903848E568FDF77BFE45F820803B4888
:10BE7000E568FDF775FE019BE46845F820303A4817
:10BE8000FDF76EFE029B44F8203005B0BDE8F08F50
:10BE90001348FDF7B9FBFCF78DFC3148FDF7B4FB07
:10BEA000FCF788FC2B48FDF7AFFBFCF783FC26482A
:10BEB000FDF7AAFBFCF77EFC2048FDF7A5FBFCF78D
:10BEC00079FC1048FDF7A0FBFCF774FC0A48FDF76D
:10BED0009BFBFCF76FFC0548FDF796FBFCF76AFC43
:10BEE000B4E80500E46404003CEA05002CE9050020
:10BEF000C864040020EA0500FCE80500C8650400E9
:10BF00004CEA050008E905009465040048EA0500CC
:10BF1000DCE805004466040044EA0500ECE805009E
:10BF20005C66040040EA0500CCE805008866040071
:10BF300028EA050094E8050024EA0500C0E80500A9
:10BF4000086D04009CEA050038E90500AC6C0400AB
:10BF500080EA050014E90500EC6D0400ACEA050078
:10BF600020E90500B86D0400A8EA0500E4E8050032
:10BF7000686E0400A4EA0500F4E80500806E040081
:10BF8000A0EA0500D4E80500AC6E040088EA0500CC
:10BF9000A4E8050084EA050000B583B08C46C168BA
:10BFA0000498CDE9003013464FF00000624609F0D6
:10BFB00095FC03B05DF804FB30B58BB00AAC04E926
:10BFC0000C00109B8A6803930EAB044693E80300B1
:10BFD000129D119B0493059501AB7925069583E885
:10BFE0000300DDE90831204600914FF000010AF01E
:10BFF00043F920460BB030BD30B58BB00AAC04E934
:10C000000C00109B8A6803930EAB044693E8030070
:10C01000129D119B0493059501AB6D25069583E850
:10C020000300DDE90831204600914FF000010AF0DD
:10C0300023F920460BB030BD30B58BB00AAC04E913
:10C040000C00109B8A6803930EAB044693E8030030
:10C05000129D119B0493059501AB7725069583E806
:10C060000300DDE90831204600914FF000010AF09D
:10C0700003F920460BB030BD30B58BB00AAC04E9F3
:10C080000C00109B8A6803930EAB044693E80300F0
:10C09000129D119B0493059501AB6425069583E8D9
:10C0A0000300DDE90831204600914FF000010AF05D
:10C0B000E3F820460BB030BD30B58BB00AAC04E9D4
:10C0C0000C00109B8A6803930EAB044693E80300B0
:10C0D000129D119B0493059501AB7425069583E889
:10C0E0000300DDE90831204600914FF000010AF01D
:10C0F000C3F820460BB030BD03464FF000009968EE
:10C100000AF0B2B870B590B00AAC84E80C009DF8A3
:10C1100058308A680393179B0493002307930D9369
:10C120000EAB06930DAB059314A9054603C90DF19B
:10C13000040C0A9B8CE8030008AE0B990091304672
:10C140004FF000010AF0DCF996E803000D9B84E84B
:10C1500003005BB9DDE90E231999C1E9002394E8D6
:10C16000030085E80300284610B070BD94E8030082
:10C17000189A85E803002846136010B070BD00BF10
:10C1800030B58BB00AAC04E90C009DF838308A68F1
:10C1900001930F9B02939DF8403003930023DDE948
:10C1A00012450693DDE90831CDE9044500914FF0D1
:10C1B000000104460AF0F6FA20460BB030BD00BF7D
:10C1C0000A4601694FF000000AF042B810B50C6849
:10C1D000016954F80C3C82B04FF0000000922246F6
:10C1E00009F018FF02B010BD00B583B08C46C168DD
:10C1F0000498CDE9003013464FF00000624609F084
:10C200007BFB03B05DF804FB30B58BB00AAC04E9EE
:10C210000C00109B8A6803930EAB044693E803005E
:10C22000129D119B0493059501AB7925069583E832
:10C230000300DDE90831204600914FF000010AF0CB
:10C24000BDF820460BB030BD30B58BB00AAC04E968
:10C250000C00109B8A6803930EAB044693E803001E
:10C26000129D119B0493059501AB6D25069583E8FE
:10C270000300DDE90831204600914FF000010AF08B
:10C280009DF820460BB030BD30B58BB00AAC04E948
:10C290000C00109B8A6803930EAB044693E80300DE
:10C2A000129D119B0493059501AB7725069583E8B4
:10C2B0000300DDE90831204600914FF000010AF04B
:10C2C0007DF820460BB030BD30B58BB00AAC04E928
:10C2D0000C00109B8A6803930EAB044693E803009E
:10C2E000129D119B0493059501AB6425069583E887
:10C2F0000300DDE90831204600914FF000010AF00B
:10C300005DF820460BB030BD30B58BB00AAC04E907
:10C310000C00109B8A6803930EAB044693E803005D
:10C32000129D119B0493059501AB7425069583E836
:10C330000300DDE90831204600914FF000010AF0CA
:10C340003DF820460BB030BD03464FF00000996821
:10C3500009F08EBF70B590B00AAC84E80C009DF86F
:10C3600058308A680393179B0493002307930D9317
:10C370000EAB06930DAB059314A9054603C90DF149
:10C38000040C0A9B8CE8030008AE0B990091304620
:10C390004FF000010AF05AF996E803000D9B84E87B
:10C3A00003005BB9DDE90E231999C1E9002394E884
:10C3B000030085E80300284610B070BD94E8030030
:10C3C000189A85E803002846136010B070BD00BFBE
:10C3D00030B58BB00AAC04E90C009DF838308A689F
:10C3E00001930F9B0293109B03930023DDE91245F9
:10C3F0000693DDE90831CDE9044500914FF00001D5
:10C4000004460AF027FA20460BB030BD0A460169FF
:10C410004FF0000009F022BF10B50C68016954F814
:10C420000C3C82B04FF000000092224609F014FE4E
:10C4300002B010BD2DE9F04192B008AE1B9F9DF8EF
:10C44000608086E80C000BAE04460D46002339469A
:10C450003046119303F086F83B681A9953F80C3C68
:10C46000AA680391199902910F490C930020099B26
:10C4700011910021CDE9040100930696089BCDF8A7
:10C4800004804FF0000120460AF0E4F9119B0BB143
:10C4900030469847204612B0BDE8F081119B0BB1A1
:10C4A00030469847FCF786F901CA00002DE9F043B1
:10C4B00093B008AE1D9F9DF868809DF8709086E847
:10C4C0000C000BAE04460D4600233946304611934E
:10C4D00002F09AFC3B681B9953F80C3CAA68029145
:10C4E00010490C930020099B11910021CDE9040112
:10C4F0000093CDF80C90089B0696CDF804804FF081
:10C50000000120460AF04EF9119B0BB130469847C6
:10C51000204613B0BDE8F083119B0BB1304698471D
:10C52000FCF748F949CD000030B58BB0C9680093DD
:10C5300000251346044603AA4FF00000099509F0B0
:10C54000E9F9099B63B1DDE9031202AB204602F071
:10C55000ABFC099B0BB103A8984720460BB030BD3C
:10C560000448FBF78DFD099B0BB103A89847FCF726
:10C5700021F900BF0849040030B58BB0C9680093A9
:10C5800000251346044603AA4FF00000099509F060
:10C590000BFA099B63B1DDE9031202AB204603F0FD
:10C5A00035F8099B0BB103A8984720460BB030BD66
:10C5B0000448FBF765FD099B0BB103A89847FCF7FE
:10C5C000F9F800BF0849040030B58DB01D46134688
:10C5D000119A09691268044652F80C0CCDE9022040
:10C5E000109A0020CDE9005205AA0B9009F0C0FD79
:10C5F0000B9B63B1DDE9051204AB204603F006F89E
:10C600000B9B0BB105A8984720460DB030BD0448E0
:10C61000FBF736FD0B9B0BB105A89847FCF7CAF852
:10C620000849040030B58DB01D461346119A0969BA
:10C630001268044652F80C0CCDE90220109A002032
:10C64000CDE9005205AA0B9009F028FD0B9B63B1C0
:10C65000DDE9051204AB204602F026FC0B9B0BB172
:10C6600005A8984720460DB030BD0448FBF708FDEB
:10C670000B9B0BB105A89847FCF79CF808490400F0
:10C6800010B504460069074B236043685A1E012B0E
:10C69000426002D103685B68984720460FF0FAF8C1
:10C6A000204610BD404F040010B504460069074BFA
:10C6B000236043685A1E012B426002D103685B6805
:10C6C0009847204619F0D0FD204610BD5C4F04006D
:10C6D00010B504468068084B236043685A1E012B3E
:10C6E000426002D103685B689847044B2360204690
:10C6F000FCF78AFF204610BD405004005C66040031
:10C7000010B504468068084B236043685A1E012B0D
:10C71000426002D103685B689847044B236020465F
:10C72000FCF772FF204610BDC04F0400886604006D
:10C7300010B504468068084B236043685A1E012BDD
:10C74000426002D103685B689847044B236020462F
:10C75000FCF75AFF204610BDE84F0400AC6E040001
:10C7600010B504468068084B236043685A1E012BAD
:10C77000426002D103685B689847044B23602046FF
:10C78000FCF742FF204610BD105004004466040030
:10C7900010B504460069094B236043685A1E012BFB
:10C7A000426002D103685B68984720460FF072F838
:10C7B000204623F037FA204610BD00BF404F04004A
:10C7C00010B504468068084B236043685A1E012B4D
:10C7D000426002D103685B689847044B236020469F
:10C7E000FCF712FF204610BD28500400686E0400BC
:10C7F00010B504460069094B236043685A1E012B9B
:10C80000426002D103685B689847204619F02CFD0E
:10C81000204623F007FA204610BD00BF5C4F0400FD
:10C8200010B504468068084B236043685A1E012BEC
:10C83000426002D103685B689847044B236020463E
:10C84000FCF7E2FE204610BD58500400806E040044
:10C8500010B5044680680A4B236043685A1E012BBA
:10C86000426002D103685B689847064B236020460C
:10C87000FCF7CAFE204623F0D5F9204610BD00BFC4
:10C88000105004004466040010B5044680680A4B4A
:10C89000236043685A1E012B426002D103685B6823
:10C8A0009847064B23602046FCF7AEFE204623F057
:10C8B000B9F9204610BD00BF28500400686E04007E
:10C8C00010B50446D0E90303002208492160DA606C
:10C8D00043685A1E012B426002D103685B68984787
:10C8E0002046FEF75DFC204610BD00BF9C4F0400B3
:10C8F00010B5044680680A4B236043685A1E012B1A
:10C90000426002D103685B689847064B236020466B
:10C91000FCF77AFE204623F085F9204610BD00BFC3
:10C92000C04F04008866040010B5044680680A4BB6
:10C93000236043685A1E012B426002D103685B6882
:10C940009847064B23602046FCF75EFE204623F006
:10C9500069F9204610BD00BF405004005C66040029
:10C9600010B5044680680A4B236043685A1E012BA9
:10C97000426002D103685B689847064B23602046FB
:10C98000FCF742FE204623F04DF9204610BD00BFC3
:10C99000E84F0400AC6E040010B5044680680A4BF2
:10C9A000236043685A1E012B426002D103685B6812
:10C9B0009847064B23602046FCF726FE204623F0CE
:10C9C00031F9204610BD00BF58500400806E0400AD
:10C9D00010B50446D0E90303002208492160DA605B
:10C9E00043685A1E012B426002D103685B68984776
:10C9F0002046FEF74BFB204610BD00BF784F0400D9
:10CA000003680A4AA3F10C00904200D1704753F822
:10CA1000042C511E002A43F8041CF7DC00B583B037
:10CA200001A902F0EFFA03B05DF804FB54E9050038
:10CA300010B50446C0680A4B236043685A1E012B98
:10CA4000426002D103685B6898472046054B40F876
:10CA5000083B23F08DFF2046FCF7D6FD204610BD95
:10CA6000084F0400C864040010B50446D0E903036D
:10CA7000002209492160DA6043685A1E012B426096
:10CA800002D103685B6898472046FEF7FFFA20460C
:10CA900023F0C8F8204610BD784F040010B50446B6
:10CAA000D0E90303002209492160DA6043685A1E75
:10CAB000012B426002D103685B6898472046FEF76D
:10CAC0006FFB204623F0AEF8204610BD9C4F0400BB
:10CAD00010B50446C0680A4B236043685A1E012BF8
:10CAE000426002D103685B6898472046054B40F8D6
:10CAF000083B23F03DFF2046FCF786FD204610BD95
:10CB0000244F0400AC6C040010B50446C0680C4B04
:10CB1000236043685A1E012B426002D103685B68A0
:10CB200098472046074B40F8083B23F021FF20465A
:10CB3000FCF76AFD204623F075F8204610BD00BFC3
:10CB4000084F0400C864040010B50446C0680C4BCC
:10CB5000236043685A1E012B426002D103685B6860
:10CB600098472046074B40F8083B23F001FF20463A
:10CB7000FCF74AFD204623F055F8204610BD00BFC3
:10CB8000244F0400AC6C040010B50446D0E9030344
:10CB9000002209492160DA609A611A629A62436848
:10CBA0005A1E012B426002D103685B6898472046F9
:10CBB000FDF736FF204610BDA450040010B5044612
:10CBC000D0E90303002209492160DA609A611A6200
:10CBD0009A6243685A1E012B426002D103685B6867
:10CBE00098472046FDF754FF204610BD70500400C2
:10CBF00010B50446D0E90303002209492160DA6038
:10CC00001A629A621A6343685A1E012B426002D16B
:10CC100003685B6898472046FEF742F8204610BD3F
:10CC2000D850040010B50446D0E903030022094996
:10CC30002160DA601A629A621A6343685A1E012BF5
:10CC4000426002D103685B6898472046FDF7F0FF19
:10CC5000204610BD0C51040010B50446D0E9030372
:10CC600000220B492160DA609A611A629A62436875
:10CC70005A1E012B426002D103685B689847204628
:10CC8000FDF706FF204622F0CDFF204610BD00BF75
:10CC90007050040010B50446D0E9030300220B498C
:10CCA0002160DA609A611A629A6243685A1E012B07
:10CCB000426002D103685B6898472046FDF7B0FEEA
:10CCC000204622F0AFFF204610BD00BFA450040054
:10CCD00010B50446D0E9030300220B492160DA6055
:10CCE0001A629A621A6343685A1E012B426002D18B
:10CCF00003685B6898472046FDF79AFF204622F0BC
:10CD000091FF204610BD00BF0C51040010B5044631
:10CD1000D0E9030300220B492160DA601A629A62AB
:10CD20001A6343685A1E012B426002D103685B6894
:10CD300098472046FDF7B4FF204622F073FF2046B7
:10CD400010BD00BFD850040003680A4AA3F10C00CC
:10CD5000904200D1704753F8042C511E002A43F82A
:10CD6000041CF7DC00B583B001A901F0ABFD03B0F2
:10CD70005DF804FB44E90500F0B597B00AAC84E81F
:10CD80000C009DF878308A6803931F9B049300235E
:10CD9000069315930D930FAF0DAB059307971CA941
:10CDA000054603C90DF1040C0A9B8CE8030008AE8C
:10CDB0000B99009130464FF0000109F047FC96E8CE
:10CDC00003000D9B84E8030063B1209A136094E88C
:10CDD0000300159B85E803000BB1384698472846A9
:10CDE00017B0F0BD159BD3B1DDE90F120CAB0EA847
:10CDF00002F00CFC21980EA902F08AF80E9B0C4A56
:10CE0000A3F10C009042E2D053F8042C511E002AEA
:10CE100043F8041CDBDC0CA902F0F4F8D7E7054862
:10CE2000FBF72EF9159B0BB138469847FBF7C2FC70
:10CE300054E9050008490400F0B597B00AAC84E84D
:10CE40000C009DF878308A6803931F9B049300239D
:10CE5000069315930D930FAF0DAB059307971CA980
:10CE6000054603C90DF1040C0A9B8CE8030008AECB
:10CE70000B99009130464FF0000109F041FB96E814
:10CE800003000D9B84E8030063B1209A136094E8CB
:10CE90000300159B85E803000BB1384698472846E8
:10CEA00017B0F0BD159BD3B1DDE90F120CAB0EA886
:10CEB00001F0FAFF21980EA901F062FC0E9B0C4ACA
:10CEC000A3F10C009042E2D053F8042C511E002A2A
:10CED00043F8041CDBDC0CA901F0F4FCD7E705489F
:10CEE000FBF7CEF8159B0BB138469847FBF762FC71
:10CEF00044E90500084904004268511E012A4160C6
:10CF000000D0704703685B68184700BF2DE9F04107
:10CF10000B6882B008469B6814460D46984784F813
:10CF200024002B682846DB68984784F825002A6887
:10CF3000002301211269A3606361E36184F8641036
:10CF400001A829469047019B53F80C8C08F1010079
:10CF500023F0FAF8064601460023424601A801F0F4
:10CF6000EBFB019B364FA3F10C000022B842C4E951
:10CF7000026806F808203AD12B6801A85B692946A7
:10CF80009847019B53F80C8C08F1010023F0DCF862
:10CF9000064601460023424601A801F0CDFB019B55
:10CFA000A3F10C000022B842C4E9056806F8082085
:10CFB00028D12B6801A89B6929469847019B53F803
:10CFC0000C6C701C23F0C0F8054601460023324665
:10CFD00001A801F0B1FB0023AB55019BA3F10C00AC
:10CFE000B842C4E9075618D102B0BDE8F08153F841
:10CFF000042C511E002A43F8041CBDDC694601F0D4
:10D0000061FCB9E753F8042C511E002A43F8041CB4
:10D01000CFDC694601F056FCCBE753F8042C511ED7
:10D02000002A43F8041CDFDC694601F04BFCDBE717
:10D0300001A801F06FFDFBF7BDFBF9E7F8E700BFC2
:10D0400044E905002DE9F0410B680D4682B0084621
:10D050009B68144698472B686062DB6828469847AF
:10D060002A68002301211269A062A3606361E36161
:10D0700084F8241101A829469047019B53F80C7CA1
:10D08000781C23F061F80646014600233A4601A8C1
:10D0900001F052FB019B434AA3F10C000021904296
:10D0A000C4E90267F1554CD12B6829465B6901A898
:10D0B0009847019B53F80C8C6FF0604308F1010610
:10D0C0009E426CD2B600304623F03EF80746014639
:10D0D0000023424601A801F0F5FE019B67613E4432
:10D0E000314FC4F81880A3F10C000022B84246F872
:10D0F000042C31D12B6829469B6901A89847019BD4
:10D1000053F80C8C6FF0604308F101059D4239D251
:10D11000AE00304623F018F805460146002342468B
:10D1200001A801F0CFFE019BC4E90758A3F10C0050
:10D1300035440022B84245F8042C18D102B0BDE8AD
:10D14000F08153F8042C511E002A43F8041CABDC78
:10D15000694601F0B7FBA7E753F8042C511E002ADB
:10D1600043F8041CC6DC694601F04CFFC2E753F8E3
:10D17000042C511E002A43F8041CDFDC694601F030
:10D1800041FFDBE7FAF7D4FF01A801F0C3FCFBF78E
:10D1900011FB01A802F06CF8FBF70CFBF9E7FAF7BA
:10D1A000C7FF00BF44E9050054E9050010B4084674
:10D1B000DDE90141019111461A4623460468A4683D
:10D1C000A44610BC604700BF10B40846DDE9014129
:10D1D000019111461A4623460468A468A44610BC6F
:10D1E000604700BF30B5086883B01446C5681A466A
:10D1F00001A8069BA847A3690BB12046984701A93F
:10D20000204601F001FE019B0D4A184650F80C1D06
:10D21000616090420B49A16101D103B030BD53F868
:10D22000042C511E002A43F8041CF6DC694601F068
:10D2300049FBF2E701A801F06DFCFBF7BBFA00BF68
:10D2400044E9050049CD000030B5086883B01446B4
:10D25000C5681A4601A8069BA847A3690BB12046DA
:10D26000984701A9204602F07DF9019B0D4A184616
:10D2700050F80C1D616090420B49A16101D103B0CF
:10D2800030BD53F8042C511E002A43F8041CF6DC70
:10D29000694601F0B7FEF2E701A801F0E9FFFBF7EC
:10D2A00089FA00BF54E9050001CA00002DE9F041E8
:10D2B0000B6884B008469B6814460D469847607416
:10D2C0002B682846DB689847A0742B6828461B6AA1
:10D2D00098472A68002301211269E062A360636114
:10D2E000E361636284F8431003A829469047039BD7
:10D2F00053F80C8C08F1010022F026FF0646014687
:10D300000023424603A801F017FA039B514FA3F1F3
:10D310000C000022B842C4E9026806F8082065D172
:10D320002B6803A85B6929469847039B53F80C8C2C
:10D3300008F1010022F008FF06460146002342469C
:10D3400003A801F0F9F9039BA3F10C000022B842F5
:10D35000C4E9056806F8082053D12B6803A89B6927
:10D3600029469847039B53F80C8C08F1010022F0E2
:10D37000EBFE064601460023424603A801F0DCF915
:10D38000039BA3F10C000022B842C4E9076806F829
:10D39000082041D12B6803A8DB6929469847039BE5
:10D3A00053F80C8C08F1010022F0CEFE064601462F
:10D3B0000023424603A801F0BFF9039BA3F10C0030
:10D3C0000022B842C4E9096806F808202FD12B686A
:10D3D00028465B6A98472063CDE902002B682846FF
:10D3E0009B6A9847606304B0BDE8F08153F8042C51
:10D3F000511E002A43F8041C92DC02A901F062FAD3
:10D400008EE753F8042C511E002A43F8041CA4DCB8
:10D4100002A901F057FAA0E753F8042C511E002A84
:10D4200043F8041CB6DC02A901F04CFAB2E753F849
:10D43000042C511E002A43F8041CC8DC02A901F088
:10D4400041FAC4E703A801F065FBFBF7B3F9F9E77C
:10D45000F8E7F7E744E905002DE9F0410B6884B0EF
:10D4600008469B6814460D46984760742B6828460A
:10D47000DB689847A0742B6828461B6A98472A687F
:10D48000002301211269E062A3606361E3616362CA
:10D4900084F8431003A829469047039B53F80C8C4B
:10D4A00008F1010022F050FE0646014600234246E4
:10D4B00003A801F041F9039B514FA3F10C00002296
:10D4C000B842C4E9026806F8082065D12B6803A8B1
:10D4D0005B6929469847039B53F80C8C08F10100BF
:10D4E00022F032FE064601460023424603A801F020
:10D4F00023F9039BA3F10C000022B842C4E905689C
:10D5000006F8082053D12B6803A89B692946984741
:10D51000039B53F80C8C08F1010022F015FE06461F
:10D5200001460023424603A801F006F9039BA3F13C
:10D530000C000022B842C4E9076806F8082041D16F
:10D540002B6803A8DB6929469847039B53F80C8C8A
:10D5500008F1010022F0F8FD06460146002342468C
:10D5600003A801F0E9F8039BA3F10C000022B842E4
:10D57000C4E9096806F808202FD12B6828465B6AA1
:10D5800098472063CDE902002B6828469B6A98479C
:10D59000606304B0BDE8F08153F8042C511E002AEA
:10D5A00043F8041C92DC02A901F08CF98EE753F8D1
:10D5B000042C511E002A43F8041CA4DC02A901F02B
:10D5C00081F9A0E753F8042C511E002A43F8041CEB
:10D5D000B6DC02A901F076F9B2E753F8042C511E2B
:10D5E000002A43F8041CC8DC02A901F06BF9C4E767
:10D5F00003A801F08FFAFBF7DDF8F9E7F8E7F7E7A2
:10D6000044E905002DE9F0430B680D4685B0084656
:10D610009B68144698472B686061DB6828469847EA
:10D620002B68A0611B6A284698472A6800230121BD
:10D6300012696063A360E3616362E36284F86C1063
:10D6400003A829469047039B53F80C7C781C22F0D2
:10D650007BFD0646014600233A4603A801F06CF81C
:10D66000039B664AA3F10C0000219042C4E90267C3
:10D67000F15540F083802B6829465B6903A89847E1
:10D68000039B53F80C8C6FF0604308F101069E4237
:10D6900080F0A680B600304622F056FD07460146CF
:10D6A0000023424603A801F00DFC039BE7613E44C2
:10D6B000534FC4F82080A3F10C000022B84246F872
:10D6C000042C67D12B6829469B6903A89847039BC4
:10D6D00053F80C9C6FF0604309F101069E4280F004
:10D6E0008A80B600304622F02FFD80460146002396
:10D6F0004A4603A801F0E6FB039BC4F82890464481
:10D70000A3F10C000022B842C4F8248046F8042C8F
:10D710004BD12B682946DB6903A89847039B53F834
:10D720000C9C6FF0604309F101069E4261D2B60085
:10D73000304622F009FD8046014600234A4603A8F0
:10D7400001F0C0FB039BC4F830904644A3F10C00E9
:10D750000022B842C4F82C8046F8042C30D12B6843
:10D7600028465B6A9847A063CDE902002B682846EB
:10D770009B6A9847E06305B0BDE8F08353F8042C3A
:10D78000511E002A43F8041C3FF775AF02A901F0AF
:10D7900099F870E753F8042C511E002A43F8041C32
:10D7A00090DC02A901F02EFC8CE753F8042C511EEA
:10D7B000002A43F8041CACDC02A901F023FCA8E712
:10D7C00053F8042C511E002A43F8041CC7DC02A99C
:10D7D00001F018FCC3E703A801F04AFDFAF7EAFFDD
:10D7E000FAF7A6FC03A801F095F9FAF7E3FFF2E7D0
:10D7F000F1E7FAF79DFCFAF79BFC00BF44E905004E
:10D8000054E905002DE9F0430B680D4685B0084644
:10D810009B68144698472B686061DB6828469847E8
:10D820002B68A0611B6A284698472A6800230121BB
:10D8300012696063A360E3616362E36284F86C1061
:10D8400003A829469047039B53F80C7C781C22F0D0
:10D850007BFC0646014600233A4603A800F06CFF15
:10D86000039B664AA3F10C0000219042C4E90267C1
:10D87000F15540F083802B6829465B6903A89847DF
:10D88000039B53F80C8C6FF0604308F101069E4235
:10D8900080F0A680B600304622F056FC07460146CE
:10D8A0000023424603A801F00DFB039BE7613E44C1
:10D8B000534FC4F82080A3F10C000022B84246F870
:10D8C000042C67D12B6829469B6903A89847039BC2
:10D8D00053F80C9C6FF0604309F101069E4280F002
:10D8E0008A80B600304622F02FFC80460146002395
:10D8F0004A4603A801F0E6FA039BC4F82890464480
:10D90000A3F10C000022B842C4F8248046F8042C8D
:10D910004BD12B682946DB6903A89847039B53F832
:10D920000C9C6FF0604309F101069E4261D2B60083
:10D93000304622F009FC8046014600234A4603A8EF
:10D9400001F0C0FA039BC4F830904644A3F10C00E8
:10D950000022B842C4F82C8046F8042C30D12B6841
:10D9600028465B6A9847A063CDE902002B682846E9
:10D970009B6A9847E06305B0BDE8F08353F8042C38
:10D98000511E002A43F8041C3FF775AF02A900F0AE
:10D9900099FF70E753F8042C511E002A43F8041C29
:10D9A00090DC02A901F02EFB8CE753F8042C511EE9
:10D9B000002A43F8041CACDC02A901F023FBA8E711
:10D9C00053F8042C511E002A43F8041CC7DC02A99A
:10D9D00001F018FBC3E703A801F04AFCFAF7EAFEDE
:10D9E000FAF7A6FB03A801F095F8FAF7E3FEF2E7D1
:10D9F000F1E7FAF79DFBFAF79BFB00BF44E905004E
:10DA000054E9050010B50C4682B0114601A81A462B
:10DA10006B4601F049FA2368049A9B68204601A9E5
:10DA20009847019B0C49A3F10C028A42044602D19B
:10DA3000204602B010BD53F8041C481E002943F8CC
:10DA4000040CF5DC6946104600F03CFFF0E701A845
:10DA500001F060F8FAF7AEFE44E9050010B50C4697
:10DA600082B0114601A81A466B4601F01DFA2368E0
:10DA7000049A9B68204601A99847019B0C49A3F191
:10DA80000C028A42044602D1204602B010BD53F86F
:10DA9000041C481E002943F8040CF5DC69461046B6
:10DAA00000F010FFF0E701A801F034F8FAF782FE69
:10DAB00044E90500F0B587B004AF0D461E460E9947
:10DAC00002AB144638460F9A01F0EEF90D9BCDE9F2
:10DAD00000372B6829463246DD680C9B05A8A8470D
:10DAE000A3690BB12046984705A9204601F08CF99F
:10DAF000059B184650F80C2D6260154AA261154C22
:10DB0000A04206D1049BA3F10C00A0420CD107B0A7
